{
  "contractName": "TokenFarm",
  "abi": [
    {
      "inputs": [
        {
          "internalType": "contract DappToken",
          "name": "_dappToken",
          "type": "address"
        },
        {
          "internalType": "contract DaiToken",
          "name": "_daiToken",
          "type": "address"
        }
      ],
      "stateMutability": "nonpayable",
      "type": "constructor"
    },
    {
      "anonymous": false,
      "inputs": [
        {
          "indexed": true,
          "internalType": "address",
          "name": "previousOwner",
          "type": "address"
        },
        {
          "indexed": true,
          "internalType": "address",
          "name": "newOwner",
          "type": "address"
        }
      ],
      "name": "OwnershipTransferred",
      "type": "event"
    },
    {
      "anonymous": false,
      "inputs": [
        {
          "indexed": false,
          "internalType": "address",
          "name": "account",
          "type": "address"
        }
      ],
      "name": "Paused",
      "type": "event"
    },
    {
      "anonymous": false,
      "inputs": [
        {
          "indexed": false,
          "internalType": "address",
          "name": "account",
          "type": "address"
        }
      ],
      "name": "Unpaused",
      "type": "event"
    },
    {
      "inputs": [],
      "name": "daiToken",
      "outputs": [
        {
          "internalType": "contract DaiToken",
          "name": "",
          "type": "address"
        }
      ],
      "stateMutability": "view",
      "type": "function",
      "constant": true
    },
    {
      "inputs": [],
      "name": "dappToken",
      "outputs": [
        {
          "internalType": "contract DappToken",
          "name": "",
          "type": "address"
        }
      ],
      "stateMutability": "view",
      "type": "function",
      "constant": true
    },
    {
      "inputs": [
        {
          "internalType": "address",
          "name": "",
          "type": "address"
        }
      ],
      "name": "hasStaked",
      "outputs": [
        {
          "internalType": "bool",
          "name": "",
          "type": "bool"
        }
      ],
      "stateMutability": "view",
      "type": "function",
      "constant": true
    },
    {
      "inputs": [
        {
          "internalType": "address",
          "name": "",
          "type": "address"
        }
      ],
      "name": "isStaking",
      "outputs": [
        {
          "internalType": "bool",
          "name": "",
          "type": "bool"
        }
      ],
      "stateMutability": "view",
      "type": "function",
      "constant": true
    },
    {
      "inputs": [],
      "name": "name",
      "outputs": [
        {
          "internalType": "string",
          "name": "",
          "type": "string"
        }
      ],
      "stateMutability": "view",
      "type": "function",
      "constant": true
    },
    {
      "inputs": [],
      "name": "owner",
      "outputs": [
        {
          "internalType": "address",
          "name": "",
          "type": "address"
        }
      ],
      "stateMutability": "view",
      "type": "function",
      "constant": true
    },
    {
      "inputs": [],
      "name": "paused",
      "outputs": [
        {
          "internalType": "bool",
          "name": "",
          "type": "bool"
        }
      ],
      "stateMutability": "view",
      "type": "function",
      "constant": true
    },
    {
      "inputs": [],
      "name": "renounceOwnership",
      "outputs": [],
      "stateMutability": "nonpayable",
      "type": "function"
    },
    {
      "inputs": [
        {
          "internalType": "uint256",
          "name": "",
          "type": "uint256"
        }
      ],
      "name": "stakers",
      "outputs": [
        {
          "internalType": "address",
          "name": "",
          "type": "address"
        }
      ],
      "stateMutability": "view",
      "type": "function",
      "constant": true
    },
    {
      "inputs": [
        {
          "internalType": "address",
          "name": "",
          "type": "address"
        }
      ],
      "name": "stakingBalance",
      "outputs": [
        {
          "internalType": "uint256",
          "name": "",
          "type": "uint256"
        }
      ],
      "stateMutability": "view",
      "type": "function",
      "constant": true
    },
    {
      "inputs": [
        {
          "internalType": "address",
          "name": "newOwner",
          "type": "address"
        }
      ],
      "name": "transferOwnership",
      "outputs": [],
      "stateMutability": "nonpayable",
      "type": "function"
    },
    {
      "inputs": [
        {
          "internalType": "uint256",
          "name": "_amount",
          "type": "uint256"
        }
      ],
      "name": "stakeTokens",
      "outputs": [],
      "stateMutability": "nonpayable",
      "type": "function"
    },
    {
      "inputs": [],
      "name": "unstake",
      "outputs": [],
      "stateMutability": "nonpayable",
      "type": "function"
    },
    {
      "inputs": [],
      "name": "issueTokens",
      "outputs": [],
      "stateMutability": "nonpayable",
      "type": "function"
    },
    {
      "inputs": [],
      "name": "pause",
      "outputs": [],
      "stateMutability": "nonpayable",
      "type": "function"
    },
    {
      "inputs": [],
      "name": "unpause",
      "outputs": [],
      "stateMutability": "nonpayable",
      "type": "function"
    },
    {
      "inputs": [
        {
          "internalType": "uint256",
          "name": "_amount",
          "type": "uint256"
        }
      ],
      "name": "withdrawAmount",
      "outputs": [],
      "stateMutability": "nonpayable",
      "type": "function"
    }
  ],
  "bytecode": "0x60806040526040518060400160405280600f81526020017f4461707020546f6b656e204661726d0000000000000000000000000000000000815250600190805190602001906200005192919062000215565b503480156200005f57600080fd5b5060405162001efe38038062001efe833981810160405281019062000085919062000388565b620000a5620000996200014960201b60201c565b6200015160201b60201c565b60008060146101000a81548160ff02191690831515021790555081600260006101000a81548173ffffffffffffffffffffffffffffffffffffffff021916908373ffffffffffffffffffffffffffffffffffffffff16021790555080600360006101000a81548173ffffffffffffffffffffffffffffffffffffffff021916908373ffffffffffffffffffffffffffffffffffffffff160217905550505062000434565b600033905090565b60008060009054906101000a900473ffffffffffffffffffffffffffffffffffffffff169050816000806101000a81548173ffffffffffffffffffffffffffffffffffffffff021916908373ffffffffffffffffffffffffffffffffffffffff1602179055508173ffffffffffffffffffffffffffffffffffffffff168173ffffffffffffffffffffffffffffffffffffffff167f8be0079c531659141344cd1fd0a4f28419497f9722a3daafe3b4186f6b6457e060405160405180910390a35050565b8280546200022390620003fe565b90600052602060002090601f01602090048101928262000247576000855562000293565b82601f106200026257805160ff191683800117855562000293565b8280016001018555821562000293579182015b828111156200029257825182559160200191906001019062000275565b5b509050620002a29190620002a6565b5090565b5b80821115620002c1576000816000905550600101620002a7565b5090565b600080fd5b600073ffffffffffffffffffffffffffffffffffffffff82169050919050565b6000620002f782620002ca565b9050919050565b60006200030b82620002ea565b9050919050565b6200031d81620002fe565b81146200032957600080fd5b50565b6000815190506200033d8162000312565b92915050565b60006200035082620002ea565b9050919050565b620003628162000343565b81146200036e57600080fd5b50565b600081519050620003828162000357565b92915050565b60008060408385031215620003a257620003a1620002c5565b5b6000620003b2858286016200032c565b9250506020620003c58582860162000371565b9150509250929050565b7f4e487b7100000000000000000000000000000000000000000000000000000000600052602260045260246000fd5b600060028204905060018216806200041757607f821691505b602082108114156200042e576200042d620003cf565b5b50919050565b611aba80620004446000396000f3fe608060405234801561001057600080fd5b506004361061010b5760003560e01c80636f49712b116100a25780638da5cb5b116100715780638da5cb5b14610234578063be22f54614610252578063c93c8f3414610270578063f2fde38b146102a0578063fd5e6dd1146102bc5761010b565b80636f49712b146101d4578063715018a6146102045780637547c7a31461020e5780638456cb591461022a5761010b565b806345bc78ab116100de57806345bc78ab1461015e5780635c975abb1461018e5780635eb186f8146101ac57806360ab5852146101ca5761010b565b80630562b9f71461011057806306fdde031461012c5780632def66201461014a5780633f4ba83a14610154575b600080fd5b61012a60048036038101906101259190611220565b6102ec565b005b61013461050f565b60405161014191906112e6565b60405180910390f35b61015261059d565b005b61015c610765565b005b61017860048036038101906101739190611366565b6107eb565b60405161018591906113a2565b60405180910390f35b610196610803565b6040516101a391906113d8565b60405180910390f35b6101b4610819565b6040516101c19190611452565b60405180910390f35b6101d261083f565b005b6101ee60048036038101906101e99190611366565b610a15565b6040516101fb91906113d8565b60405180910390f35b61020c610a35565b005b61022860048036038101906102239190611220565b610abd565b005b610232610da9565b005b61023c610e2f565b604051610249919061147c565b60405180910390f35b61025a610e58565b60405161026791906114b8565b60405180910390f35b61028a60048036038101906102859190611366565b610e7e565b60405161029791906113d8565b60405180910390f35b6102ba60048036038101906102b59190611366565b610e9e565b005b6102d660048036038101906102d19190611220565b610f96565b6040516102e3919061147c565b60405180910390f35b6000600560003373ffffffffffffffffffffffffffffffffffffffff1673ffffffffffffffffffffffffffffffffffffffff16815260200190815260200160002054905081811015610373576040517f08c379a000000000000000000000000000000000000000000000000000000000815260040161036a90611545565b60405180910390fd5b600360009054906101000a900473ffffffffffffffffffffffffffffffffffffffff1673ffffffffffffffffffffffffffffffffffffffff1663a9059cbb33846040518363ffffffff1660e01b81526004016103d0929190611565565b6020604051808303816000875af11580156103ef573d6000803e3d6000fd5b505050506040513d601f19601f8201168201806040525081019061041391906115ba565b5081600560003373ffffffffffffffffffffffffffffffffffffffff1673ffffffffffffffffffffffffffffffffffffffff16815260200190815260200160002060008282546104639190611616565b925050819055506000600560003373ffffffffffffffffffffffffffffffffffffffff1673ffffffffffffffffffffffffffffffffffffffff16815260200190815260200160002054141561050b576000600760003373ffffffffffffffffffffffffffffffffffffffff1673ffffffffffffffffffffffffffffffffffffffff16815260200190815260200160002060006101000a81548160ff0219169083151502179055505b5050565b6001805461051c90611679565b80601f016020809104026020016040519081016040528092919081815260200182805461054890611679565b80156105955780601f1061056a57610100808354040283529160200191610595565b820191906000526020600020905b81548152906001019060200180831161057857829003601f168201915b505050505081565b6000600560003373ffffffffffffffffffffffffffffffffffffffff1673ffffffffffffffffffffffffffffffffffffffff16815260200190815260200160002054905060008111610624576040517f08c379a000000000000000000000000000000000000000000000000000000000815260040161061b9061171d565b60405180910390fd5b600360009054906101000a900473ffffffffffffffffffffffffffffffffffffffff1673ffffffffffffffffffffffffffffffffffffffff1663a9059cbb33836040518363ffffffff1660e01b8152600401610681929190611565565b6020604051808303816000875af11580156106a0573d6000803e3d6000fd5b505050506040513d601f19601f820116820180604052508101906106c491906115ba565b506000600560003373ffffffffffffffffffffffffffffffffffffffff1673ffffffffffffffffffffffffffffffffffffffff168152602001908152602001600020819055506000600760003373ffffffffffffffffffffffffffffffffffffffff1673ffffffffffffffffffffffffffffffffffffffff16815260200190815260200160002060006101000a81548160ff02191690831515021790555050565b61076d610fd5565b73ffffffffffffffffffffffffffffffffffffffff1661078b610e2f565b73ffffffffffffffffffffffffffffffffffffffff16146107e1576040517f08c379a00000000000000000000000000000000000000000000000000000000081526004016107d890611789565b60405180910390fd5b6107e9610fdd565b565b60056020528060005260406000206000915090505481565b60008060149054906101000a900460ff16905090565b600260009054906101000a900473ffffffffffffffffffffffffffffffffffffffff1681565b610847610fd5565b73ffffffffffffffffffffffffffffffffffffffff16610865610e2f565b73ffffffffffffffffffffffffffffffffffffffff16146108bb576040517f08c379a00000000000000000000000000000000000000000000000000000000081526004016108b290611789565b60405180910390fd5b60005b600480549050811015610a12576000600482815481106108e1576108e06117a9565b5b9060005260206000200160009054906101000a900473ffffffffffffffffffffffffffffffffffffffff1690506000600560008373ffffffffffffffffffffffffffffffffffffffff1673ffffffffffffffffffffffffffffffffffffffff16815260200190815260200160002054905060008111156109fd57600260009054906101000a900473ffffffffffffffffffffffffffffffffffffffff1673ffffffffffffffffffffffffffffffffffffffff1663a9059cbb83836040518363ffffffff1660e01b81526004016109b8929190611565565b6020604051808303816000875af11580156109d7573d6000803e3d6000fd5b505050506040513d601f19601f820116820180604052508101906109fb91906115ba565b505b50508080610a0a906117d8565b9150506108be565b50565b60076020528060005260406000206000915054906101000a900460ff1681565b610a3d610fd5565b73ffffffffffffffffffffffffffffffffffffffff16610a5b610e2f565b73ffffffffffffffffffffffffffffffffffffffff1614610ab1576040517f08c379a0000000000000000000000000000000000000000000000000000000008152600401610aa890611789565b60405180910390fd5b610abb600061107e565b565b610ac5610803565b15610b05576040517f08c379a0000000000000000000000000000000000000000000000000000000008152600401610afc9061186d565b60405180910390fd5b60008111610b48576040517f08c379a0000000000000000000000000000000000000000000000000000000008152600401610b3f906118d9565b60405180910390fd5b600360009054906101000a900473ffffffffffffffffffffffffffffffffffffffff1673ffffffffffffffffffffffffffffffffffffffff166323b872dd3330846040518463ffffffff1660e01b8152600401610ba7939291906118f9565b6020604051808303816000875af1158015610bc6573d6000803e3d6000fd5b505050506040513d601f19601f82011682018060405250810190610bea91906115ba565b5080600560003373ffffffffffffffffffffffffffffffffffffffff1673ffffffffffffffffffffffffffffffffffffffff1681526020019081526020016000206000828254610c3a9190611930565b92505081905550600660003373ffffffffffffffffffffffffffffffffffffffff1673ffffffffffffffffffffffffffffffffffffffff16815260200190815260200160002060009054906101000a900460ff16610cf6576004339080600181540180825580915050600190039060005260206000200160009091909190916101000a81548173ffffffffffffffffffffffffffffffffffffffff021916908373ffffffffffffffffffffffffffffffffffffffff1602179055505b6001600660003373ffffffffffffffffffffffffffffffffffffffff1673ffffffffffffffffffffffffffffffffffffffff16815260200190815260200160002060006101000a81548160ff0219169083151502179055506001600760003373ffffffffffffffffffffffffffffffffffffffff1673ffffffffffffffffffffffffffffffffffffffff16815260200190815260200160002060006101000a81548160ff02191690831515021790555050565b610db1610fd5565b73ffffffffffffffffffffffffffffffffffffffff16610dcf610e2f565b73ffffffffffffffffffffffffffffffffffffffff1614610e25576040517f08c379a0000000000000000000000000000000000000000000000000000000008152600401610e1c90611789565b60405180910390fd5b610e2d611142565b565b60008060009054906101000a900473ffffffffffffffffffffffffffffffffffffffff16905090565b600360009054906101000a900473ffffffffffffffffffffffffffffffffffffffff1681565b60066020528060005260406000206000915054906101000a900460ff1681565b610ea6610fd5565b73ffffffffffffffffffffffffffffffffffffffff16610ec4610e2f565b73ffffffffffffffffffffffffffffffffffffffff1614610f1a576040517f08c379a0000000000000000000000000000000000000000000000000000000008152600401610f1190611789565b60405180910390fd5b600073ffffffffffffffffffffffffffffffffffffffff168173ffffffffffffffffffffffffffffffffffffffff161415610f8a576040517f08c379a0000000000000000000000000000000000000000000000000000000008152600401610f81906119f8565b60405180910390fd5b610f938161107e565b50565b60048181548110610fa657600080fd5b906000526020600020016000915054906101000a900473ffffffffffffffffffffffffffffffffffffffff1681565b600033905090565b610fe5610803565b611024576040517f08c379a000000000000000000000000000000000000000000000000000000000815260040161101b90611a64565b60405180910390fd5b60008060146101000a81548160ff0219169083151502179055507f5db9ee0a495bf2e6ff9c91a7834c1ba4fdd244a5e8aa4e537bd38aeae4b073aa611067610fd5565b604051611074919061147c565b60405180910390a1565b60008060009054906101000a900473ffffffffffffffffffffffffffffffffffffffff169050816000806101000a81548173ffffffffffffffffffffffffffffffffffffffff021916908373ffffffffffffffffffffffffffffffffffffffff1602179055508173ffffffffffffffffffffffffffffffffffffffff168173ffffffffffffffffffffffffffffffffffffffff167f8be0079c531659141344cd1fd0a4f28419497f9722a3daafe3b4186f6b6457e060405160405180910390a35050565b61114a610803565b1561118a576040517f08c379a00000000000000000000000000000000000000000000000000000000081526004016111819061186d565b60405180910390fd5b6001600060146101000a81548160ff0219169083151502179055507f62e78cea01bee320cd4e420270b5ea74000d11b0c9f74754ebdbfc544b05a2586111ce610fd5565b6040516111db919061147c565b60405180910390a1565b600080fd5b6000819050919050565b6111fd816111ea565b811461120857600080fd5b50565b60008135905061121a816111f4565b92915050565b600060208284031215611236576112356111e5565b5b60006112448482850161120b565b91505092915050565b600081519050919050565b600082825260208201905092915050565b60005b8381101561128757808201518184015260208101905061126c565b83811115611296576000848401525b50505050565b6000601f19601f8301169050919050565b60006112b88261124d565b6112c28185611258565b93506112d2818560208601611269565b6112db8161129c565b840191505092915050565b6000602082019050818103600083015261130081846112ad565b905092915050565b600073ffffffffffffffffffffffffffffffffffffffff82169050919050565b600061133382611308565b9050919050565b61134381611328565b811461134e57600080fd5b50565b6000813590506113608161133a565b92915050565b60006020828403121561137c5761137b6111e5565b5b600061138a84828501611351565b91505092915050565b61139c816111ea565b82525050565b60006020820190506113b76000830184611393565b92915050565b60008115159050919050565b6113d2816113bd565b82525050565b60006020820190506113ed60008301846113c9565b92915050565b6000819050919050565b600061141861141361140e84611308565b6113f3565b611308565b9050919050565b600061142a826113fd565b9050919050565b600061143c8261141f565b9050919050565b61144c81611431565b82525050565b60006020820190506114676000830184611443565b92915050565b61147681611328565b82525050565b6000602082019050611491600083018461146d565b92915050565b60006114a28261141f565b9050919050565b6114b281611497565b82525050565b60006020820190506114cd60008301846114a9565b92915050565b7f776974686472617720616d6f756e742068617320746f2067726561746572207460008201527f68616e206f7220657175616c20746f207374616b65642062616c616e63650000602082015250565b600061152f603e83611258565b915061153a826114d3565b604082019050919050565b6000602082019050818103600083015261155e81611522565b9050919050565b600060408201905061157a600083018561146d565b6115876020830184611393565b9392505050565b611597816113bd565b81146115a257600080fd5b50565b6000815190506115b48161158e565b92915050565b6000602082840312156115d0576115cf6111e5565b5b60006115de848285016115a5565b91505092915050565b7f4e487b7100000000000000000000000000000000000000000000000000000000600052601160045260246000fd5b6000611621826111ea565b915061162c836111ea565b92508282101561163f5761163e6115e7565b5b828203905092915050565b7f4e487b7100000000000000000000000000000000000000000000000000000000600052602260045260246000fd5b6000600282049050600182168061169157607f821691505b602082108114156116a5576116a461164a565b5b50919050565b7f776974686472617720616d6f756e742068617320746f2067726561746572207460008201527f68616e207a65726f000000000000000000000000000000000000000000000000602082015250565b6000611707602883611258565b9150611712826116ab565b604082019050919050565b60006020820190508181036000830152611736816116fa565b9050919050565b7f4f776e61626c653a2063616c6c6572206973206e6f7420746865206f776e6572600082015250565b6000611773602083611258565b915061177e8261173d565b602082019050919050565b600060208201905081810360008301526117a281611766565b9050919050565b7f4e487b7100000000000000000000000000000000000000000000000000000000600052603260045260246000fd5b60006117e3826111ea565b91507fffffffffffffffffffffffffffffffffffffffffffffffffffffffffffffffff821415611816576118156115e7565b5b600182019050919050565b7f5061757361626c653a2070617573656400000000000000000000000000000000600082015250565b6000611857601083611258565b915061186282611821565b602082019050919050565b600060208201905081810360008301526118868161184a565b9050919050565b7f546f6b656e732073686f756c64206265206d6f7265207468616e203000000000600082015250565b60006118c3601c83611258565b91506118ce8261188d565b602082019050919050565b600060208201905081810360008301526118f2816118b6565b9050919050565b600060608201905061190e600083018661146d565b61191b602083018561146d565b6119286040830184611393565b949350505050565b600061193b826111ea565b9150611946836111ea565b9250827fffffffffffffffffffffffffffffffffffffffffffffffffffffffffffffffff0382111561197b5761197a6115e7565b5b828201905092915050565b7f4f776e61626c653a206e6577206f776e657220697320746865207a65726f206160008201527f6464726573730000000000000000000000000000000000000000000000000000602082015250565b60006119e2602683611258565b91506119ed82611986565b604082019050919050565b60006020820190508181036000830152611a11816119d5565b9050919050565b7f5061757361626c653a206e6f7420706175736564000000000000000000000000600082015250565b6000611a4e601483611258565b9150611a5982611a18565b602082019050919050565b60006020820190508181036000830152611a7d81611a41565b905091905056fea2646970667358221220ae461c9e45a2f264bb98db9086973b11aa86912c2135df4f0911010009ae21da64736f6c634300080b0033",
  "immutableReferences": {},
  "source": "// SPDX-License-Identifier: MIT\r\npragma solidity ^0.8.0;\r\n\r\nimport \"@openzeppelin/contracts/access/Ownable.sol\";\r\nimport \"@openzeppelin/contracts/security/Pausable.sol\";\r\nimport \"./DappToken.sol\";\r\nimport \"./DaiToken.sol\";\r\n\r\ncontract TokenFarm is Ownable, Pausable {\r\n    string public name = \"Dapp Token Farm\";\r\n    DappToken public dappToken;\r\n    DaiToken public daiToken;\r\n\r\n    address[] public stakers;\r\n    mapping(address => uint) public stakingBalance;\r\n    mapping(address => bool) public hasStaked;\r\n    mapping(address => bool) public isStaking;\r\n\r\n\r\n    constructor (DappToken _dappToken, DaiToken _daiToken) {\r\n        dappToken = _dappToken;\r\n        daiToken = _daiToken;\r\n    }\r\n\r\n    function stakeTokens(uint _amount) public whenNotPaused {\r\n\r\n        require (_amount > 0, \"Tokens should be more than 0\");\r\n        daiToken.transferFrom(msg.sender, address(this), _amount);\r\n        stakingBalance[msg.sender] += _amount; \r\n\r\n        if(!hasStaked[msg.sender]) {\r\n            stakers.push(msg.sender);\r\n        } \r\n\r\n        hasStaked[msg.sender] = true;\r\n        isStaking[msg.sender] = true;\r\n    }\r\n\r\n    function unstake() public {\r\n        uint balance = stakingBalance[msg.sender];  \r\n        require(balance > 0, \"withdraw amount has to greater than zero\");\r\n        daiToken.transfer(msg.sender, balance);\r\n\r\n        stakingBalance[msg.sender] = 0;\r\n        isStaking[msg.sender] = false;\r\n    }\r\n\r\n    function issueTokens() public onlyOwner {\r\n        for(uint i = 0; i  < stakers.length; i++) {\r\n            address receipient = stakers[i];\r\n            uint balance = stakingBalance[receipient];  \r\n\r\n            if (balance > 0) {\r\n                dappToken.transfer(receipient, balance);\r\n            }\r\n\r\n        }\r\n    }\r\n\r\n    function pause() public onlyOwner {\r\n        _pause();\r\n    }\r\n\r\n    function unpause() public onlyOwner {\r\n        _unpause();\r\n    }\r\n\r\n    function withdrawAmount(uint _amount) public {\r\n        uint balance = stakingBalance[msg.sender];  \r\n        require(balance >= _amount, \"withdraw amount has to greater than or equal to staked balance\");\r\n        daiToken.transfer(msg.sender, _amount);\r\n\r\n        stakingBalance[msg.sender] -= _amount;\r\n        if(stakingBalance[msg.sender] == 0) {\r\n            isStaking[msg.sender] = false;\r\n        }\r\n    }\r\n\r\n}\r\n",
  "sourcePath": "C:\\Development\\koffeemakerz\\test-staking\\src\\contracts\\TokenFarm.sol",
  "compiler": {
    "name": "solc",
    "version": "0.8.11+commit.d7f03943.Emscripten.clang"
  },
  "schemaVersion": "3.4.3",
  "updatedAt": "2022-01-09T18:25:28.531Z",
  "networkType": "ethereum",
  "devdoc": {
    "kind": "dev",
    "methods": {
      "owner()": {
        "details": "Returns the address of the current owner."
      },
      "paused()": {
        "details": "Returns true if the contract is paused, and false otherwise."
      },
      "renounceOwnership()": {
        "details": "Leaves the contract without owner. It will not be possible to call `onlyOwner` functions anymore. Can only be called by the current owner. NOTE: Renouncing ownership will leave the contract without an owner, thereby removing any functionality that is only available to the owner."
      },
      "transferOwnership(address)": {
        "details": "Transfers ownership of the contract to a new account (`newOwner`). Can only be called by the current owner."
      }
    },
    "version": 1
  },
  "userdoc": {
    "kind": "user",
    "methods": {},
    "version": 1
  }
}