{
  "contractName": "TokenFarm",
  "abi": [
    {
      "inputs": [
        {
          "internalType": "contract DappToken",
          "name": "_dappToken",
          "type": "address"
        },
        {
          "internalType": "contract DaiToken",
          "name": "_daiToken",
          "type": "address"
        }
      ],
      "stateMutability": "nonpayable",
      "type": "constructor"
    },
    {
      "anonymous": false,
      "inputs": [
        {
          "indexed": true,
          "internalType": "address",
          "name": "previousOwner",
          "type": "address"
        },
        {
          "indexed": true,
          "internalType": "address",
          "name": "newOwner",
          "type": "address"
        }
      ],
      "name": "OwnershipTransferred",
      "type": "event"
    },
    {
      "inputs": [],
      "name": "daiToken",
      "outputs": [
        {
          "internalType": "contract DaiToken",
          "name": "",
          "type": "address"
        }
      ],
      "stateMutability": "view",
      "type": "function",
      "constant": true
    },
    {
      "inputs": [],
      "name": "dappToken",
      "outputs": [
        {
          "internalType": "contract DappToken",
          "name": "",
          "type": "address"
        }
      ],
      "stateMutability": "view",
      "type": "function",
      "constant": true
    },
    {
      "inputs": [
        {
          "internalType": "address",
          "name": "",
          "type": "address"
        }
      ],
      "name": "hasStaked",
      "outputs": [
        {
          "internalType": "bool",
          "name": "",
          "type": "bool"
        }
      ],
      "stateMutability": "view",
      "type": "function",
      "constant": true
    },
    {
      "inputs": [
        {
          "internalType": "address",
          "name": "",
          "type": "address"
        }
      ],
      "name": "isStaking",
      "outputs": [
        {
          "internalType": "bool",
          "name": "",
          "type": "bool"
        }
      ],
      "stateMutability": "view",
      "type": "function",
      "constant": true
    },
    {
      "inputs": [],
      "name": "name",
      "outputs": [
        {
          "internalType": "string",
          "name": "",
          "type": "string"
        }
      ],
      "stateMutability": "view",
      "type": "function",
      "constant": true
    },
    {
      "inputs": [],
      "name": "owner",
      "outputs": [
        {
          "internalType": "address",
          "name": "",
          "type": "address"
        }
      ],
      "stateMutability": "view",
      "type": "function",
      "constant": true
    },
    {
      "inputs": [],
      "name": "renounceOwnership",
      "outputs": [],
      "stateMutability": "nonpayable",
      "type": "function"
    },
    {
      "inputs": [
        {
          "internalType": "uint256",
          "name": "",
          "type": "uint256"
        }
      ],
      "name": "stakers",
      "outputs": [
        {
          "internalType": "address",
          "name": "",
          "type": "address"
        }
      ],
      "stateMutability": "view",
      "type": "function",
      "constant": true
    },
    {
      "inputs": [
        {
          "internalType": "address",
          "name": "",
          "type": "address"
        }
      ],
      "name": "stakingBalance",
      "outputs": [
        {
          "internalType": "uint256",
          "name": "",
          "type": "uint256"
        }
      ],
      "stateMutability": "view",
      "type": "function",
      "constant": true
    },
    {
      "inputs": [
        {
          "internalType": "address",
          "name": "newOwner",
          "type": "address"
        }
      ],
      "name": "transferOwnership",
      "outputs": [],
      "stateMutability": "nonpayable",
      "type": "function"
    },
    {
      "inputs": [
        {
          "internalType": "uint256",
          "name": "_amount",
          "type": "uint256"
        }
      ],
      "name": "stakeTokens",
      "outputs": [],
      "stateMutability": "nonpayable",
      "type": "function"
    },
    {
      "inputs": [],
      "name": "unstake",
      "outputs": [],
      "stateMutability": "nonpayable",
      "type": "function"
    },
    {
      "inputs": [],
      "name": "issueTokens",
      "outputs": [],
      "stateMutability": "nonpayable",
      "type": "function"
    }
  ],
  "bytecode": "0x60806040526040518060400160405280600f81526020017f4461707020546f6b656e204661726d00000000000000000000000000000000008152506001908051906020019062000051929190620001fb565b503480156200005f57600080fd5b50604051620017eb380380620017eb83398181016040528101906200008591906200036e565b620000a5620000996200012f60201b60201c565b6200013760201b60201c565b81600260006101000a81548173ffffffffffffffffffffffffffffffffffffffff021916908373ffffffffffffffffffffffffffffffffffffffff16021790555080600360006101000a81548173ffffffffffffffffffffffffffffffffffffffff021916908373ffffffffffffffffffffffffffffffffffffffff16021790555050506200041a565b600033905090565b60008060009054906101000a900473ffffffffffffffffffffffffffffffffffffffff169050816000806101000a81548173ffffffffffffffffffffffffffffffffffffffff021916908373ffffffffffffffffffffffffffffffffffffffff1602179055508173ffffffffffffffffffffffffffffffffffffffff168173ffffffffffffffffffffffffffffffffffffffff167f8be0079c531659141344cd1fd0a4f28419497f9722a3daafe3b4186f6b6457e060405160405180910390a35050565b8280546200020990620003e4565b90600052602060002090601f0160209004810192826200022d576000855562000279565b82601f106200024857805160ff191683800117855562000279565b8280016001018555821562000279579182015b82811115620002785782518255916020019190600101906200025b565b5b5090506200028891906200028c565b5090565b5b80821115620002a75760008160009055506001016200028d565b5090565b600080fd5b600073ffffffffffffffffffffffffffffffffffffffff82169050919050565b6000620002dd82620002b0565b9050919050565b6000620002f182620002d0565b9050919050565b6200030381620002e4565b81146200030f57600080fd5b50565b6000815190506200032381620002f8565b92915050565b60006200033682620002d0565b9050919050565b620003488162000329565b81146200035457600080fd5b50565b60008151905062000368816200033d565b92915050565b60008060408385031215620003885762000387620002ab565b5b6000620003988582860162000312565b9250506020620003ab8582860162000357565b9150509250929050565b7f4e487b7100000000000000000000000000000000000000000000000000000000600052602260045260246000fd5b60006002820490506001821680620003fd57607f821691505b60208210811415620004145762000413620003b5565b5b50919050565b6113c1806200042a6000396000f3fe608060405234801561001057600080fd5b50600436106100cf5760003560e01c8063715018a61161008c578063be22f54611610066578063be22f546146101c8578063c93c8f34146101e6578063f2fde38b14610216578063fd5e6dd114610232576100cf565b8063715018a6146101845780637547c7a31461018e5780638da5cb5b146101aa576100cf565b806306fdde03146100d45780632def6620146100f257806345bc78ab146100fc5780635eb186f81461012c57806360ab58521461014a5780636f49712b14610154575b600080fd5b6100dc610262565b6040516100e99190610d23565b60405180910390f35b6100fa6102f0565b005b61011660048036038101906101119190610da8565b6104b8565b6040516101239190610dee565b60405180910390f35b6101346104d0565b6040516101419190610e68565b60405180910390f35b6101526104f6565b005b61016e60048036038101906101699190610da8565b6106cc565b60405161017b9190610e9e565b60405180910390f35b61018c6106ec565b005b6101a860048036038101906101a39190610ee5565b610774565b005b6101b2610a18565b6040516101bf9190610f21565b60405180910390f35b6101d0610a41565b6040516101dd9190610f5d565b60405180910390f35b61020060048036038101906101fb9190610da8565b610a67565b60405161020d9190610e9e565b60405180910390f35b610230600480360381019061022b9190610da8565b610a87565b005b61024c60048036038101906102479190610ee5565b610b7f565b6040516102599190610f21565b60405180910390f35b6001805461026f90610fa7565b80601f016020809104026020016040519081016040528092919081815260200182805461029b90610fa7565b80156102e85780601f106102bd576101008083540402835291602001916102e8565b820191906000526020600020905b8154815290600101906020018083116102cb57829003601f168201915b505050505081565b6000600560003373ffffffffffffffffffffffffffffffffffffffff1673ffffffffffffffffffffffffffffffffffffffff16815260200190815260200160002054905060008111610377576040517f08c379a000000000000000000000000000000000000000000000000000000000815260040161036e9061104b565b60405180910390fd5b600360009054906101000a900473ffffffffffffffffffffffffffffffffffffffff1673ffffffffffffffffffffffffffffffffffffffff1663a9059cbb33836040518363ffffffff1660e01b81526004016103d492919061106b565b6020604051808303816000875af11580156103f3573d6000803e3d6000fd5b505050506040513d601f19601f8201168201806040525081019061041791906110c0565b506000600560003373ffffffffffffffffffffffffffffffffffffffff1673ffffffffffffffffffffffffffffffffffffffff168152602001908152602001600020819055506000600760003373ffffffffffffffffffffffffffffffffffffffff1673ffffffffffffffffffffffffffffffffffffffff16815260200190815260200160002060006101000a81548160ff02191690831515021790555050565b60056020528060005260406000206000915090505481565b600260009054906101000a900473ffffffffffffffffffffffffffffffffffffffff1681565b6104fe610bbe565b73ffffffffffffffffffffffffffffffffffffffff1661051c610a18565b73ffffffffffffffffffffffffffffffffffffffff1614610572576040517f08c379a000000000000000000000000000000000000000000000000000000000815260040161056990611139565b60405180910390fd5b60005b6004805490508110156106c95760006004828154811061059857610597611159565b5b9060005260206000200160009054906101000a900473ffffffffffffffffffffffffffffffffffffffff1690506000600560008373ffffffffffffffffffffffffffffffffffffffff1673ffffffffffffffffffffffffffffffffffffffff16815260200190815260200160002054905060008111156106b457600260009054906101000a900473ffffffffffffffffffffffffffffffffffffffff1673ffffffffffffffffffffffffffffffffffffffff1663a9059cbb83836040518363ffffffff1660e01b815260040161066f92919061106b565b6020604051808303816000875af115801561068e573d6000803e3d6000fd5b505050506040513d601f19601f820116820180604052508101906106b291906110c0565b505b505080806106c1906111b7565b915050610575565b50565b60076020528060005260406000206000915054906101000a900460ff1681565b6106f4610bbe565b73ffffffffffffffffffffffffffffffffffffffff16610712610a18565b73ffffffffffffffffffffffffffffffffffffffff1614610768576040517f08c379a000000000000000000000000000000000000000000000000000000000815260040161075f90611139565b60405180910390fd5b6107726000610bc6565b565b600081116107b7576040517f08c379a00000000000000000000000000000000000000000000000000000000081526004016107ae9061124c565b60405180910390fd5b600360009054906101000a900473ffffffffffffffffffffffffffffffffffffffff1673ffffffffffffffffffffffffffffffffffffffff166323b872dd3330846040518463ffffffff1660e01b81526004016108169392919061126c565b6020604051808303816000875af1158015610835573d6000803e3d6000fd5b505050506040513d601f19601f8201168201806040525081019061085991906110c0565b5080600560003373ffffffffffffffffffffffffffffffffffffffff1673ffffffffffffffffffffffffffffffffffffffff16815260200190815260200160002060008282546108a991906112a3565b92505081905550600660003373ffffffffffffffffffffffffffffffffffffffff1673ffffffffffffffffffffffffffffffffffffffff16815260200190815260200160002060009054906101000a900460ff16610965576004339080600181540180825580915050600190039060005260206000200160009091909190916101000a81548173ffffffffffffffffffffffffffffffffffffffff021916908373ffffffffffffffffffffffffffffffffffffffff1602179055505b6001600660003373ffffffffffffffffffffffffffffffffffffffff1673ffffffffffffffffffffffffffffffffffffffff16815260200190815260200160002060006101000a81548160ff0219169083151502179055506001600760003373ffffffffffffffffffffffffffffffffffffffff1673ffffffffffffffffffffffffffffffffffffffff16815260200190815260200160002060006101000a81548160ff02191690831515021790555050565b60008060009054906101000a900473ffffffffffffffffffffffffffffffffffffffff16905090565b600360009054906101000a900473ffffffffffffffffffffffffffffffffffffffff1681565b60066020528060005260406000206000915054906101000a900460ff1681565b610a8f610bbe565b73ffffffffffffffffffffffffffffffffffffffff16610aad610a18565b73ffffffffffffffffffffffffffffffffffffffff1614610b03576040517f08c379a0000000000000000000000000000000000000000000000000000000008152600401610afa90611139565b60405180910390fd5b600073ffffffffffffffffffffffffffffffffffffffff168173ffffffffffffffffffffffffffffffffffffffff161415610b73576040517f08c379a0000000000000000000000000000000000000000000000000000000008152600401610b6a9061136b565b60405180910390fd5b610b7c81610bc6565b50565b60048181548110610b8f57600080fd5b906000526020600020016000915054906101000a900473ffffffffffffffffffffffffffffffffffffffff1681565b600033905090565b60008060009054906101000a900473ffffffffffffffffffffffffffffffffffffffff169050816000806101000a81548173ffffffffffffffffffffffffffffffffffffffff021916908373ffffffffffffffffffffffffffffffffffffffff1602179055508173ffffffffffffffffffffffffffffffffffffffff168173ffffffffffffffffffffffffffffffffffffffff167f8be0079c531659141344cd1fd0a4f28419497f9722a3daafe3b4186f6b6457e060405160405180910390a35050565b600081519050919050565b600082825260208201905092915050565b60005b83811015610cc4578082015181840152602081019050610ca9565b83811115610cd3576000848401525b50505050565b6000601f19601f8301169050919050565b6000610cf582610c8a565b610cff8185610c95565b9350610d0f818560208601610ca6565b610d1881610cd9565b840191505092915050565b60006020820190508181036000830152610d3d8184610cea565b905092915050565b600080fd5b600073ffffffffffffffffffffffffffffffffffffffff82169050919050565b6000610d7582610d4a565b9050919050565b610d8581610d6a565b8114610d9057600080fd5b50565b600081359050610da281610d7c565b92915050565b600060208284031215610dbe57610dbd610d45565b5b6000610dcc84828501610d93565b91505092915050565b6000819050919050565b610de881610dd5565b82525050565b6000602082019050610e036000830184610ddf565b92915050565b6000819050919050565b6000610e2e610e29610e2484610d4a565b610e09565b610d4a565b9050919050565b6000610e4082610e13565b9050919050565b6000610e5282610e35565b9050919050565b610e6281610e47565b82525050565b6000602082019050610e7d6000830184610e59565b92915050565b60008115159050919050565b610e9881610e83565b82525050565b6000602082019050610eb36000830184610e8f565b92915050565b610ec281610dd5565b8114610ecd57600080fd5b50565b600081359050610edf81610eb9565b92915050565b600060208284031215610efb57610efa610d45565b5b6000610f0984828501610ed0565b91505092915050565b610f1b81610d6a565b82525050565b6000602082019050610f366000830184610f12565b92915050565b6000610f4782610e35565b9050919050565b610f5781610f3c565b82525050565b6000602082019050610f726000830184610f4e565b92915050565b7f4e487b7100000000000000000000000000000000000000000000000000000000600052602260045260246000fd5b60006002820490506001821680610fbf57607f821691505b60208210811415610fd357610fd2610f78565b5b50919050565b7f776974686472617720616d6f756e742068617320746f2067726561746572207460008201527f68616e207a65726f000000000000000000000000000000000000000000000000602082015250565b6000611035602883610c95565b915061104082610fd9565b604082019050919050565b6000602082019050818103600083015261106481611028565b9050919050565b60006040820190506110806000830185610f12565b61108d6020830184610ddf565b9392505050565b61109d81610e83565b81146110a857600080fd5b50565b6000815190506110ba81611094565b92915050565b6000602082840312156110d6576110d5610d45565b5b60006110e4848285016110ab565b91505092915050565b7f4f776e61626c653a2063616c6c6572206973206e6f7420746865206f776e6572600082015250565b6000611123602083610c95565b915061112e826110ed565b602082019050919050565b6000602082019050818103600083015261115281611116565b9050919050565b7f4e487b7100000000000000000000000000000000000000000000000000000000600052603260045260246000fd5b7f4e487b7100000000000000000000000000000000000000000000000000000000600052601160045260246000fd5b60006111c282610dd5565b91507fffffffffffffffffffffffffffffffffffffffffffffffffffffffffffffffff8214156111f5576111f4611188565b5b600182019050919050565b7f546f6b656e732073686f756c64206265206d6f7265207468616e203000000000600082015250565b6000611236601c83610c95565b915061124182611200565b602082019050919050565b6000602082019050818103600083015261126581611229565b9050919050565b60006060820190506112816000830186610f12565b61128e6020830185610f12565b61129b6040830184610ddf565b949350505050565b60006112ae82610dd5565b91506112b983610dd5565b9250827fffffffffffffffffffffffffffffffffffffffffffffffffffffffffffffffff038211156112ee576112ed611188565b5b828201905092915050565b7f4f776e61626c653a206e6577206f776e657220697320746865207a65726f206160008201527f6464726573730000000000000000000000000000000000000000000000000000602082015250565b6000611355602683610c95565b9150611360826112f9565b604082019050919050565b6000602082019050818103600083015261138481611348565b905091905056fea26469706673582212209b33fe32492bb049b3abdfbbc6b318e2ce076ac4e1a7e156b115feca4e0fa7c664736f6c634300080b0033",
  "immutableReferences": {},
  "source": "// SPDX-License-Identifier: MIT\r\npragma solidity ^0.8.0;\r\n\r\nimport \"@openzeppelin/contracts/access/Ownable.sol\";\r\nimport \"./DappToken.sol\";\r\nimport \"./DaiToken.sol\";\r\n\r\ncontract TokenFarm is Ownable {\r\n    string public name = \"Dapp Token Farm\";\r\n    DappToken public dappToken;\r\n    DaiToken public daiToken;\r\n\r\n    address[] public stakers;\r\n    mapping(address => uint) public stakingBalance;\r\n    mapping(address => bool) public hasStaked;\r\n    mapping(address => bool) public isStaking;\r\n\r\n\r\n    constructor (DappToken _dappToken, DaiToken _daiToken) {\r\n        dappToken = _dappToken;\r\n        daiToken = _daiToken;\r\n    }\r\n\r\n    function stakeTokens(uint _amount) public {\r\n\r\n        require (_amount > 0, \"Tokens should be more than 0\");\r\n        daiToken.transferFrom(msg.sender, address(this), _amount);\r\n        stakingBalance[msg.sender] += _amount; \r\n\r\n        if(!hasStaked[msg.sender]) {\r\n            stakers.push(msg.sender);\r\n        } \r\n\r\n        hasStaked[msg.sender] = true;\r\n        isStaking[msg.sender] = true;\r\n    }\r\n\r\n    function unstake() public {\r\n        uint balance = stakingBalance[msg.sender];  \r\n        require(balance > 0, \"withdraw amount has to greater than zero\");\r\n        daiToken.transfer(msg.sender, balance);\r\n\r\n        stakingBalance[msg.sender] = 0;\r\n        isStaking[msg.sender] = false;\r\n    }\r\n\r\n    function issueTokens() public onlyOwner {\r\n        for(uint i = 0; i  < stakers.length; i++) {\r\n            address receipient = stakers[i];\r\n            uint balance = stakingBalance[receipient];  \r\n\r\n            if (balance > 0) {\r\n                dappToken.transfer(receipient, balance);\r\n            }\r\n\r\n        }\r\n    }\r\n}\r\n",
  "sourcePath": "C:\\Development\\koffeemakerz\\test-staking\\src\\contracts\\TokenFarm.sol",
  "compiler": {
    "name": "solc",
    "version": "0.8.11+commit.d7f03943.Emscripten.clang"
  },
  "schemaVersion": "3.4.3",
  "updatedAt": "2022-01-06T19:06:48.491Z",
  "networkType": "ethereum",
  "devdoc": {
    "kind": "dev",
    "methods": {
      "owner()": {
        "details": "Returns the address of the current owner."
      },
      "renounceOwnership()": {
        "details": "Leaves the contract without owner. It will not be possible to call `onlyOwner` functions anymore. Can only be called by the current owner. NOTE: Renouncing ownership will leave the contract without an owner, thereby removing any functionality that is only available to the owner."
      },
      "transferOwnership(address)": {
        "details": "Transfers ownership of the contract to a new account (`newOwner`). Can only be called by the current owner."
      }
    },
    "version": 1
  },
  "userdoc": {
    "kind": "user",
    "methods": {},
    "version": 1
  }
}