{
  "contractName": "TokenFarm",
  "abi": [
    {
      "inputs": [
        {
          "internalType": "contract DappToken",
          "name": "_dappToken",
          "type": "address"
        },
        {
          "internalType": "contract DaiToken",
          "name": "_daiToken",
          "type": "address"
        }
      ],
      "stateMutability": "nonpayable",
      "type": "constructor"
    },
    {
      "anonymous": false,
      "inputs": [
        {
          "indexed": true,
          "internalType": "address",
          "name": "previousOwner",
          "type": "address"
        },
        {
          "indexed": true,
          "internalType": "address",
          "name": "newOwner",
          "type": "address"
        }
      ],
      "name": "OwnershipTransferred",
      "type": "event"
    },
    {
      "anonymous": false,
      "inputs": [
        {
          "indexed": false,
          "internalType": "address",
          "name": "account",
          "type": "address"
        }
      ],
      "name": "Paused",
      "type": "event"
    },
    {
      "anonymous": false,
      "inputs": [
        {
          "indexed": false,
          "internalType": "address",
          "name": "",
          "type": "address"
        },
        {
          "indexed": false,
          "internalType": "uint256",
          "name": "",
          "type": "uint256"
        }
      ],
      "name": "Received",
      "type": "event"
    },
    {
      "anonymous": false,
      "inputs": [
        {
          "indexed": false,
          "internalType": "address",
          "name": "account",
          "type": "address"
        }
      ],
      "name": "Unpaused",
      "type": "event"
    },
    {
      "inputs": [],
      "name": "daiToken",
      "outputs": [
        {
          "internalType": "contract DaiToken",
          "name": "",
          "type": "address"
        }
      ],
      "stateMutability": "view",
      "type": "function"
    },
    {
      "inputs": [],
      "name": "dappToken",
      "outputs": [
        {
          "internalType": "contract DappToken",
          "name": "",
          "type": "address"
        }
      ],
      "stateMutability": "view",
      "type": "function"
    },
    {
      "inputs": [
        {
          "internalType": "address",
          "name": "",
          "type": "address"
        }
      ],
      "name": "dappTokenBalance",
      "outputs": [
        {
          "internalType": "uint256",
          "name": "",
          "type": "uint256"
        }
      ],
      "stateMutability": "view",
      "type": "function"
    },
    {
      "inputs": [
        {
          "internalType": "address",
          "name": "",
          "type": "address"
        }
      ],
      "name": "hasStaked",
      "outputs": [
        {
          "internalType": "bool",
          "name": "",
          "type": "bool"
        }
      ],
      "stateMutability": "view",
      "type": "function"
    },
    {
      "inputs": [],
      "name": "interestRate",
      "outputs": [
        {
          "internalType": "uint256",
          "name": "",
          "type": "uint256"
        }
      ],
      "stateMutability": "view",
      "type": "function"
    },
    {
      "inputs": [
        {
          "internalType": "address",
          "name": "",
          "type": "address"
        }
      ],
      "name": "isStaking",
      "outputs": [
        {
          "internalType": "bool",
          "name": "",
          "type": "bool"
        }
      ],
      "stateMutability": "view",
      "type": "function"
    },
    {
      "inputs": [],
      "name": "lastUpdateTime",
      "outputs": [
        {
          "internalType": "uint256",
          "name": "",
          "type": "uint256"
        }
      ],
      "stateMutability": "view",
      "type": "function"
    },
    {
      "inputs": [],
      "name": "name",
      "outputs": [
        {
          "internalType": "string",
          "name": "",
          "type": "string"
        }
      ],
      "stateMutability": "view",
      "type": "function"
    },
    {
      "inputs": [],
      "name": "owner",
      "outputs": [
        {
          "internalType": "address",
          "name": "",
          "type": "address"
        }
      ],
      "stateMutability": "view",
      "type": "function"
    },
    {
      "inputs": [],
      "name": "paused",
      "outputs": [
        {
          "internalType": "bool",
          "name": "",
          "type": "bool"
        }
      ],
      "stateMutability": "view",
      "type": "function"
    },
    {
      "inputs": [],
      "name": "renounceOwnership",
      "outputs": [],
      "stateMutability": "nonpayable",
      "type": "function"
    },
    {
      "inputs": [
        {
          "internalType": "uint256",
          "name": "",
          "type": "uint256"
        }
      ],
      "name": "stakers",
      "outputs": [
        {
          "internalType": "address",
          "name": "",
          "type": "address"
        }
      ],
      "stateMutability": "view",
      "type": "function"
    },
    {
      "inputs": [
        {
          "internalType": "address",
          "name": "",
          "type": "address"
        }
      ],
      "name": "stakingBalance",
      "outputs": [
        {
          "internalType": "uint256",
          "name": "",
          "type": "uint256"
        }
      ],
      "stateMutability": "view",
      "type": "function"
    },
    {
      "inputs": [
        {
          "internalType": "address",
          "name": "newOwner",
          "type": "address"
        }
      ],
      "name": "transferOwnership",
      "outputs": [],
      "stateMutability": "nonpayable",
      "type": "function"
    },
    {
      "stateMutability": "payable",
      "type": "receive"
    },
    {
      "inputs": [
        {
          "internalType": "uint256",
          "name": "_amount",
          "type": "uint256"
        }
      ],
      "name": "stakeTokens",
      "outputs": [],
      "stateMutability": "nonpayable",
      "type": "function"
    },
    {
      "inputs": [],
      "name": "unstake",
      "outputs": [],
      "stateMutability": "nonpayable",
      "type": "function"
    },
    {
      "inputs": [],
      "name": "issueTokens",
      "outputs": [],
      "stateMutability": "nonpayable",
      "type": "function"
    },
    {
      "inputs": [],
      "name": "getTimeGapSinceLastBlock",
      "outputs": [
        {
          "internalType": "uint256",
          "name": "",
          "type": "uint256"
        }
      ],
      "stateMutability": "view",
      "type": "function"
    },
    {
      "inputs": [
        {
          "internalType": "uint256",
          "name": "_amount",
          "type": "uint256"
        }
      ],
      "name": "rewardPerAmount",
      "outputs": [
        {
          "internalType": "uint256",
          "name": "",
          "type": "uint256"
        }
      ],
      "stateMutability": "view",
      "type": "function"
    },
    {
      "inputs": [],
      "name": "claimRewards",
      "outputs": [],
      "stateMutability": "nonpayable",
      "type": "function"
    },
    {
      "inputs": [
        {
          "internalType": "uint256",
          "name": "_interestRate",
          "type": "uint256"
        }
      ],
      "name": "setInterest",
      "outputs": [],
      "stateMutability": "nonpayable",
      "type": "function"
    },
    {
      "inputs": [],
      "name": "pause",
      "outputs": [],
      "stateMutability": "nonpayable",
      "type": "function"
    },
    {
      "inputs": [],
      "name": "unpause",
      "outputs": [],
      "stateMutability": "nonpayable",
      "type": "function"
    },
    {
      "inputs": [
        {
          "internalType": "uint256",
          "name": "_amount",
          "type": "uint256"
        }
      ],
      "name": "withdrawAmount",
      "outputs": [],
      "stateMutability": "nonpayable",
      "type": "function"
    }
  ],
  "bytecode": "0x60806040526040518060400160405280600f81526020017f4461707020546f6b656e204661726d000000000000000000000000000000000081525060019080519060200190620000519291906200021c565b503480156200005f57600080fd5b506040516200252c3803806200252c83398181016040528101906200008591906200038f565b620000a5620000996200015060201b60201c565b6200015860201b60201c565b60008060146101000a81548160ff02191690831515021790555081600260006101000a81548173ffffffffffffffffffffffffffffffffffffffff021916908373ffffffffffffffffffffffffffffffffffffffff16021790555080600360006101000a81548173ffffffffffffffffffffffffffffffffffffffff021916908373ffffffffffffffffffffffffffffffffffffffff16021790555042600a8190555050506200043b565b600033905090565b60008060009054906101000a900473ffffffffffffffffffffffffffffffffffffffff169050816000806101000a81548173ffffffffffffffffffffffffffffffffffffffff021916908373ffffffffffffffffffffffffffffffffffffffff1602179055508173ffffffffffffffffffffffffffffffffffffffff168173ffffffffffffffffffffffffffffffffffffffff167f8be0079c531659141344cd1fd0a4f28419497f9722a3daafe3b4186f6b6457e060405160405180910390a35050565b8280546200022a9062000405565b90600052602060002090601f0160209004810192826200024e57600085556200029a565b82601f106200026957805160ff19168380011785556200029a565b828001600101855582156200029a579182015b82811115620002995782518255916020019190600101906200027c565b5b509050620002a99190620002ad565b5090565b5b80821115620002c8576000816000905550600101620002ae565b5090565b600080fd5b600073ffffffffffffffffffffffffffffffffffffffff82169050919050565b6000620002fe82620002d1565b9050919050565b60006200031282620002f1565b9050919050565b620003248162000305565b81146200033057600080fd5b50565b600081519050620003448162000319565b92915050565b60006200035782620002f1565b9050919050565b62000369816200034a565b81146200037557600080fd5b50565b60008151905062000389816200035e565b92915050565b60008060408385031215620003a957620003a8620002cc565b5b6000620003b98582860162000333565b9250506020620003cc8582860162000378565b9150509250929050565b7f4e487b7100000000000000000000000000000000000000000000000000000000600052602260045260246000fd5b600060028204905060018216806200041e57607f821691505b60208210811415620004355762000434620003d6565b5b50919050565b6120e1806200044b6000396000f3fe60806040526004361061014f5760003560e01c80637547c7a3116100b6578063be22f5461161006f578063be22f54614610452578063c8f33c911461047d578063c93c8f34146104a8578063d57103c7146104e5578063f2fde38b14610522578063fd5e6dd11461054b5761018f565b80637547c7a3146103545780637c3a00fd1461037d5780638456cb59146103a85780638da5cb5b146103bf5780639d022c3f146103ea578063b5649011146104275761018f565b806345bc78ab1161010857806345bc78ab146102565780635c975abb146102935780635eb186f8146102be57806360ab5852146102e95780636f49712b14610300578063715018a61461033d5761018f565b80630562b9f71461019457806306fdde03146101bd5780631d086720146101e85780632def662014610211578063372500ab146102285780633f4ba83a1461023f5761018f565b3661018f577f88a5966d370b9919b20f3e2c13ff65706f196a4e32cc2c12bf57088f88525874333460405161018592919061171a565b60405180910390a1005b600080fd5b3480156101a057600080fd5b506101bb60048036038101906101b69190611774565b610588565b005b3480156101c957600080fd5b506101d26107ab565b6040516101df919061183a565b60405180910390f35b3480156101f457600080fd5b5061020f600480360381019061020a9190611774565b610839565b005b34801561021d57600080fd5b506102266108bf565b005b34801561023457600080fd5b5061023d610a87565b005b34801561024b57600080fd5b50610254610c53565b005b34801561026257600080fd5b5061027d60048036038101906102789190611888565b610cd9565b60405161028a91906118b5565b60405180910390f35b34801561029f57600080fd5b506102a8610cf1565b6040516102b591906118eb565b60405180910390f35b3480156102ca57600080fd5b506102d3610d07565b6040516102e09190611965565b60405180910390f35b3480156102f557600080fd5b506102fe610d2d565b005b34801561030c57600080fd5b5061032760048036038101906103229190611888565b610e61565b60405161033491906118eb565b60405180910390f35b34801561034957600080fd5b50610352610e81565b005b34801561036057600080fd5b5061037b60048036038101906103769190611774565b610f09565b005b34801561038957600080fd5b506103926111f5565b60405161039f91906118b5565b60405180910390f35b3480156103b457600080fd5b506103bd6111fb565b005b3480156103cb57600080fd5b506103d4611281565b6040516103e19190611980565b60405180910390f35b3480156103f657600080fd5b50610411600480360381019061040c9190611888565b6112aa565b60405161041e91906118b5565b60405180910390f35b34801561043357600080fd5b5061043c6112c2565b60405161044991906118b5565b60405180910390f35b34801561045e57600080fd5b506104676112d7565b60405161047491906119bc565b60405180910390f35b34801561048957600080fd5b506104926112fd565b60405161049f91906118b5565b60405180910390f35b3480156104b457600080fd5b506104cf60048036038101906104ca9190611888565b611303565b6040516104dc91906118eb565b60405180910390f35b3480156104f157600080fd5b5061050c60048036038101906105079190611774565b611323565b60405161051991906118b5565b60405180910390f35b34801561052e57600080fd5b5061054960048036038101906105449190611888565b611379565b005b34801561055757600080fd5b50610572600480360381019061056d9190611774565b611471565b60405161057f9190611980565b60405180910390f35b6000600560003373ffffffffffffffffffffffffffffffffffffffff1673ffffffffffffffffffffffffffffffffffffffff1681526020019081526020016000205490508181101561060f576040517f08c379a000000000000000000000000000000000000000000000000000000000815260040161060690611a49565b60405180910390fd5b600360009054906101000a900473ffffffffffffffffffffffffffffffffffffffff1673ffffffffffffffffffffffffffffffffffffffff1663a9059cbb33846040518363ffffffff1660e01b815260040161066c92919061171a565b6020604051808303816000875af115801561068b573d6000803e3d6000fd5b505050506040513d601f19601f820116820180604052508101906106af9190611a95565b5081600560003373ffffffffffffffffffffffffffffffffffffffff1673ffffffffffffffffffffffffffffffffffffffff16815260200190815260200160002060008282546106ff9190611af1565b925050819055506000600560003373ffffffffffffffffffffffffffffffffffffffff1673ffffffffffffffffffffffffffffffffffffffff1681526020019081526020016000205414156107a7576000600760003373ffffffffffffffffffffffffffffffffffffffff1673ffffffffffffffffffffffffffffffffffffffff16815260200190815260200160002060006101000a81548160ff0219169083151502179055505b5050565b600180546107b890611b54565b80601f01602080910402602001604051908101604052809291908181526020018280546107e490611b54565b80156108315780601f1061080657610100808354040283529160200191610831565b820191906000526020600020905b81548152906001019060200180831161081457829003601f168201915b505050505081565b6108416114b0565b73ffffffffffffffffffffffffffffffffffffffff1661085f611281565b73ffffffffffffffffffffffffffffffffffffffff16146108b5576040517f08c379a00000000000000000000000000000000000000000000000000000000081526004016108ac90611bd2565b60405180910390fd5b8060098190555050565b6000600560003373ffffffffffffffffffffffffffffffffffffffff1673ffffffffffffffffffffffffffffffffffffffff16815260200190815260200160002054905060008111610946576040517f08c379a000000000000000000000000000000000000000000000000000000000815260040161093d90611c64565b60405180910390fd5b600360009054906101000a900473ffffffffffffffffffffffffffffffffffffffff1673ffffffffffffffffffffffffffffffffffffffff1663a9059cbb33836040518363ffffffff1660e01b81526004016109a392919061171a565b6020604051808303816000875af11580156109c2573d6000803e3d6000fd5b505050506040513d601f19601f820116820180604052508101906109e69190611a95565b506000600560003373ffffffffffffffffffffffffffffffffffffffff1673ffffffffffffffffffffffffffffffffffffffff168152602001908152602001600020819055506000600760003373ffffffffffffffffffffffffffffffffffffffff1673ffffffffffffffffffffffffffffffffffffffff16815260200190815260200160002060006101000a81548160ff02191690831515021790555050565b6000600860003373ffffffffffffffffffffffffffffffffffffffff1673ffffffffffffffffffffffffffffffffffffffff168152602001908152602001600020549050600081118015610b1a575080600860003373ffffffffffffffffffffffffffffffffffffffff1673ffffffffffffffffffffffffffffffffffffffff1681526020019081526020016000205410155b610b59576040517f08c379a0000000000000000000000000000000000000000000000000000000008152600401610b5090611cf6565b60405180910390fd5b600260009054906101000a900473ffffffffffffffffffffffffffffffffffffffff1673ffffffffffffffffffffffffffffffffffffffff1663a9059cbb33836040518363ffffffff1660e01b8152600401610bb692919061171a565b6020604051808303816000875af1158015610bd5573d6000803e3d6000fd5b505050506040513d601f19601f82011682018060405250810190610bf99190611a95565b5080600860003373ffffffffffffffffffffffffffffffffffffffff1673ffffffffffffffffffffffffffffffffffffffff1681526020019081526020016000206000828254610c499190611af1565b9250508190555050565b610c5b6114b0565b73ffffffffffffffffffffffffffffffffffffffff16610c79611281565b73ffffffffffffffffffffffffffffffffffffffff1614610ccf576040517f08c379a0000000000000000000000000000000000000000000000000000000008152600401610cc690611bd2565b60405180910390fd5b610cd76114b8565b565b60056020528060005260406000206000915090505481565b60008060149054906101000a900460ff16905090565b600260009054906101000a900473ffffffffffffffffffffffffffffffffffffffff1681565b6000610d376112c2565b1415610d4257610e5f565b42600a8190555060005b600480549050811015610e5d57600060048281548110610d6f57610d6e611d16565b5b9060005260206000200160009054906101000a900473ffffffffffffffffffffffffffffffffffffffff1690506000600560008373ffffffffffffffffffffffffffffffffffffffff1673ffffffffffffffffffffffffffffffffffffffff1681526020019081526020016000205490506000811115610e4857610df281611323565b600860003373ffffffffffffffffffffffffffffffffffffffff1673ffffffffffffffffffffffffffffffffffffffff1681526020019081526020016000206000828254610e409190611d45565b925050819055505b50508080610e5590611d9b565b915050610d4c565b505b565b60076020528060005260406000206000915054906101000a900460ff1681565b610e896114b0565b73ffffffffffffffffffffffffffffffffffffffff16610ea7611281565b73ffffffffffffffffffffffffffffffffffffffff1614610efd576040517f08c379a0000000000000000000000000000000000000000000000000000000008152600401610ef490611bd2565b60405180910390fd5b610f076000611559565b565b610f11610cf1565b15610f51576040517f08c379a0000000000000000000000000000000000000000000000000000000008152600401610f4890611e30565b60405180910390fd5b60008111610f94576040517f08c379a0000000000000000000000000000000000000000000000000000000008152600401610f8b90611e9c565b60405180910390fd5b600360009054906101000a900473ffffffffffffffffffffffffffffffffffffffff1673ffffffffffffffffffffffffffffffffffffffff166323b872dd3330846040518463ffffffff1660e01b8152600401610ff393929190611ebc565b6020604051808303816000875af1158015611012573d6000803e3d6000fd5b505050506040513d601f19601f820116820180604052508101906110369190611a95565b5080600560003373ffffffffffffffffffffffffffffffffffffffff1673ffffffffffffffffffffffffffffffffffffffff16815260200190815260200160002060008282546110869190611d45565b92505081905550600660003373ffffffffffffffffffffffffffffffffffffffff1673ffffffffffffffffffffffffffffffffffffffff16815260200190815260200160002060009054906101000a900460ff16611142576004339080600181540180825580915050600190039060005260206000200160009091909190916101000a81548173ffffffffffffffffffffffffffffffffffffffff021916908373ffffffffffffffffffffffffffffffffffffffff1602179055505b6001600660003373ffffffffffffffffffffffffffffffffffffffff1673ffffffffffffffffffffffffffffffffffffffff16815260200190815260200160002060006101000a81548160ff0219169083151502179055506001600760003373ffffffffffffffffffffffffffffffffffffffff1673ffffffffffffffffffffffffffffffffffffffff16815260200190815260200160002060006101000a81548160ff02191690831515021790555050565b60095481565b6112036114b0565b73ffffffffffffffffffffffffffffffffffffffff16611221611281565b73ffffffffffffffffffffffffffffffffffffffff1614611277576040517f08c379a000000000000000000000000000000000000000000000000000000000815260040161126e90611bd2565b60405180910390fd5b61127f61161d565b565b60008060009054906101000a900473ffffffffffffffffffffffffffffffffffffffff16905090565b60086020528060005260406000206000915090505481565b6000600a54426112d29190611af1565b905090565b600360009054906101000a900473ffffffffffffffffffffffffffffffffffffffff1681565b600a5481565b60066020528060005260406000206000915054906101000a900460ff1681565b6000808214156113365760009050611374565b6301e185586113436112c2565b61134d9190611f22565b606460095461135c9190611f22565b836113679190611f53565b6113719190611f53565b90505b919050565b6113816114b0565b73ffffffffffffffffffffffffffffffffffffffff1661139f611281565b73ffffffffffffffffffffffffffffffffffffffff16146113f5576040517f08c379a00000000000000000000000000000000000000000000000000000000081526004016113ec90611bd2565b60405180910390fd5b600073ffffffffffffffffffffffffffffffffffffffff168173ffffffffffffffffffffffffffffffffffffffff161415611465576040517f08c379a000000000000000000000000000000000000000000000000000000000815260040161145c9061201f565b60405180910390fd5b61146e81611559565b50565b6004818154811061148157600080fd5b906000526020600020016000915054906101000a900473ffffffffffffffffffffffffffffffffffffffff1681565b600033905090565b6114c0610cf1565b6114ff576040517f08c379a00000000000000000000000000000000000000000000000000000000081526004016114f69061208b565b60405180910390fd5b60008060146101000a81548160ff0219169083151502179055507f5db9ee0a495bf2e6ff9c91a7834c1ba4fdd244a5e8aa4e537bd38aeae4b073aa6115426114b0565b60405161154f9190611980565b60405180910390a1565b60008060009054906101000a900473ffffffffffffffffffffffffffffffffffffffff169050816000806101000a81548173ffffffffffffffffffffffffffffffffffffffff021916908373ffffffffffffffffffffffffffffffffffffffff1602179055508173ffffffffffffffffffffffffffffffffffffffff168173ffffffffffffffffffffffffffffffffffffffff167f8be0079c531659141344cd1fd0a4f28419497f9722a3daafe3b4186f6b6457e060405160405180910390a35050565b611625610cf1565b15611665576040517f08c379a000000000000000000000000000000000000000000000000000000000815260040161165c90611e30565b60405180910390fd5b6001600060146101000a81548160ff0219169083151502179055507f62e78cea01bee320cd4e420270b5ea74000d11b0c9f74754ebdbfc544b05a2586116a96114b0565b6040516116b69190611980565b60405180910390a1565b600073ffffffffffffffffffffffffffffffffffffffff82169050919050565b60006116eb826116c0565b9050919050565b6116fb816116e0565b82525050565b6000819050919050565b61171481611701565b82525050565b600060408201905061172f60008301856116f2565b61173c602083018461170b565b9392505050565b600080fd5b61175181611701565b811461175c57600080fd5b50565b60008135905061176e81611748565b92915050565b60006020828403121561178a57611789611743565b5b60006117988482850161175f565b91505092915050565b600081519050919050565b600082825260208201905092915050565b60005b838110156117db5780820151818401526020810190506117c0565b838111156117ea576000848401525b50505050565b6000601f19601f8301169050919050565b600061180c826117a1565b61181681856117ac565b93506118268185602086016117bd565b61182f816117f0565b840191505092915050565b600060208201905081810360008301526118548184611801565b905092915050565b611865816116e0565b811461187057600080fd5b50565b6000813590506118828161185c565b92915050565b60006020828403121561189e5761189d611743565b5b60006118ac84828501611873565b91505092915050565b60006020820190506118ca600083018461170b565b92915050565b60008115159050919050565b6118e5816118d0565b82525050565b600060208201905061190060008301846118dc565b92915050565b6000819050919050565b600061192b611926611921846116c0565b611906565b6116c0565b9050919050565b600061193d82611910565b9050919050565b600061194f82611932565b9050919050565b61195f81611944565b82525050565b600060208201905061197a6000830184611956565b92915050565b600060208201905061199560008301846116f2565b92915050565b60006119a682611932565b9050919050565b6119b68161199b565b82525050565b60006020820190506119d160008301846119ad565b92915050565b7f776974686472617720616d6f756e742068617320746f2067726561746572207460008201527f68616e206f7220657175616c20746f207374616b65642062616c616e63650000602082015250565b6000611a33603e836117ac565b9150611a3e826119d7565b604082019050919050565b60006020820190508181036000830152611a6281611a26565b9050919050565b611a72816118d0565b8114611a7d57600080fd5b50565b600081519050611a8f81611a69565b92915050565b600060208284031215611aab57611aaa611743565b5b6000611ab984828501611a80565b91505092915050565b7f4e487b7100000000000000000000000000000000000000000000000000000000600052601160045260246000fd5b6000611afc82611701565b9150611b0783611701565b925082821015611b1a57611b19611ac2565b5b828203905092915050565b7f4e487b7100000000000000000000000000000000000000000000000000000000600052602260045260246000fd5b60006002820490506001821680611b6c57607f821691505b60208210811415611b8057611b7f611b25565b5b50919050565b7f4f776e61626c653a2063616c6c6572206973206e6f7420746865206f776e6572600082015250565b6000611bbc6020836117ac565b9150611bc782611b86565b602082019050919050565b60006020820190508181036000830152611beb81611baf565b9050919050565b7f776974686472617720616d6f756e742068617320746f2067726561746572207460008201527f68616e207a65726f000000000000000000000000000000000000000000000000602082015250565b6000611c4e6028836117ac565b9150611c5982611bf2565b604082019050919050565b60006020820190508181036000830152611c7d81611c41565b9050919050565b7f636c61696d20616d6f756e742068617320746f2067726561746572207468616e60008201527f207a65726f200000000000000000000000000000000000000000000000000000602082015250565b6000611ce06026836117ac565b9150611ceb82611c84565b604082019050919050565b60006020820190508181036000830152611d0f81611cd3565b9050919050565b7f4e487b7100000000000000000000000000000000000000000000000000000000600052603260045260246000fd5b6000611d5082611701565b9150611d5b83611701565b9250827fffffffffffffffffffffffffffffffffffffffffffffffffffffffffffffffff03821115611d9057611d8f611ac2565b5b828201905092915050565b6000611da682611701565b91507fffffffffffffffffffffffffffffffffffffffffffffffffffffffffffffffff821415611dd957611dd8611ac2565b5b600182019050919050565b7f5061757361626c653a2070617573656400000000000000000000000000000000600082015250565b6000611e1a6010836117ac565b9150611e2582611de4565b602082019050919050565b60006020820190508181036000830152611e4981611e0d565b9050919050565b7f546f6b656e732073686f756c64206265206d6f7265207468616e203000000000600082015250565b6000611e86601c836117ac565b9150611e9182611e50565b602082019050919050565b60006020820190508181036000830152611eb581611e79565b9050919050565b6000606082019050611ed160008301866116f2565b611ede60208301856116f2565b611eeb604083018461170b565b949350505050565b7f4e487b7100000000000000000000000000000000000000000000000000000000600052601260045260246000fd5b6000611f2d82611701565b9150611f3883611701565b925082611f4857611f47611ef3565b5b828204905092915050565b6000611f5e82611701565b9150611f6983611701565b9250817fffffffffffffffffffffffffffffffffffffffffffffffffffffffffffffffff0483118215151615611fa257611fa1611ac2565b5b828202905092915050565b7f4f776e61626c653a206e6577206f776e657220697320746865207a65726f206160008201527f6464726573730000000000000000000000000000000000000000000000000000602082015250565b60006120096026836117ac565b915061201482611fad565b604082019050919050565b6000602082019050818103600083015261203881611ffc565b9050919050565b7f5061757361626c653a206e6f7420706175736564000000000000000000000000600082015250565b60006120756014836117ac565b91506120808261203f565b602082019050919050565b600060208201905081810360008301526120a481612068565b905091905056fea2646970667358221220118e3d699a1896d923a20dcf45bf9e848ee63121f0abd680ce76981be8a5706264736f6c634300080b0033",
  "immutableReferences": {},
  "source": "// SPDX-License-Identifier: MIT\r\npragma solidity ^0.8.0;\r\n\r\nimport \"@openzeppelin/contracts/access/Ownable.sol\";\r\nimport \"@openzeppelin/contracts/security/Pausable.sol\";\r\nimport \"./DappToken.sol\";\r\nimport \"./DaiToken.sol\";\r\n\r\ncontract TokenFarm is Ownable, Pausable {\r\n    string public name = \"Dapp Token Farm\";\r\n    DappToken public dappToken;\r\n    DaiToken public daiToken;\r\n\r\n    address[] public stakers;\r\n    mapping(address => uint) public stakingBalance;\r\n    mapping(address => bool) public hasStaked;\r\n    mapping(address => bool) public isStaking;\r\n\r\n    event Received(address, uint);\r\n\r\n    mapping(address => uint) public dappTokenBalance;\r\n    uint public interestRate;\r\n    uint public lastUpdateTime; // last block updated time  \r\n    uint constant secondsPerYear = 31556952;\r\n\r\n    constructor (DappToken _dappToken, DaiToken _daiToken) {\r\n        dappToken = _dappToken;\r\n        daiToken = _daiToken;\r\n        lastUpdateTime = block.timestamp;\r\n    }\r\n\r\n    function stakeTokens(uint _amount) public whenNotPaused {\r\n\r\n        require (_amount > 0, \"Tokens should be more than 0\");\r\n        daiToken.transferFrom(msg.sender, address(this), _amount);\r\n        stakingBalance[msg.sender] += _amount; \r\n\r\n        if(!hasStaked[msg.sender]) {\r\n            stakers.push(msg.sender);\r\n        } \r\n\r\n        hasStaked[msg.sender] = true;\r\n        isStaking[msg.sender] = true;\r\n    }\r\n\r\n    function unstake() public {\r\n        uint balance = stakingBalance[msg.sender];  \r\n        require(balance > 0, \"withdraw amount has to greater than zero\");\r\n        daiToken.transfer(msg.sender, balance);\r\n\r\n        stakingBalance[msg.sender] = 0;\r\n        isStaking[msg.sender] = false;\r\n    }\r\n\r\n    function issueTokens() public {\r\n        if(getTimeGapSinceLastBlock() == 0) {\r\n            return;\r\n        }\r\n        lastUpdateTime = block.timestamp; // update timestamp\r\n        //https://solidity-by-example.org/defi/staking-rewards/\r\n        for(uint i = 0; i  < stakers.length; i++) {\r\n            address receipient = stakers[i];\r\n            uint balance = stakingBalance[receipient];  \r\n\r\n            if (balance > 0) {\r\n                dappTokenBalance[msg.sender] += rewardPerAmount(balance);\r\n            }\r\n        }\r\n    }\r\n\r\n    function getTimeGapSinceLastBlock() public view returns (uint) {\r\n        return (block.timestamp - lastUpdateTime);\r\n    } \r\n\r\n    function rewardPerAmount(uint _amount) public view returns (uint) {\r\n        if(_amount == 0) {\r\n            return 0;\r\n        }\r\n        return _amount * (interestRate / 100) * (getTimeGapSinceLastBlock() / secondsPerYear);\r\n    }\r\n\r\n    function claimRewards() public {\r\n        uint balance = dappTokenBalance[msg.sender];  \r\n        require(balance > 0 && dappTokenBalance[msg.sender] >= balance, \"claim amount has to greater than zero \");\r\n        dappToken.transfer(msg.sender, balance);\r\n\r\n        dappTokenBalance[msg.sender] -= balance;\r\n    }\r\n\r\n    function setInterest(uint _interestRate) public onlyOwner {\r\n        interestRate = _interestRate;\r\n    }\r\n\r\n    function pause() public onlyOwner {\r\n        _pause();\r\n    }\r\n\r\n    function unpause() public onlyOwner {\r\n        _unpause();\r\n    }\r\n\r\n    function withdrawAmount(uint _amount) public {\r\n        uint balance = stakingBalance[msg.sender];  \r\n        require(balance >= _amount, \"withdraw amount has to greater than or equal to staked balance\");\r\n        daiToken.transfer(msg.sender, _amount);\r\n\r\n        stakingBalance[msg.sender] -= _amount;\r\n        if(stakingBalance[msg.sender] == 0) {\r\n            isStaking[msg.sender] = false;\r\n        }\r\n    }\r\n\r\n    receive() external payable {\r\n        emit Received(msg.sender, msg.value);\r\n    }\r\n\r\n}\r\n",
  "sourcePath": "C:\\Development\\koffeemakerz\\test-staking\\src\\contracts\\TokenFarm.sol",
  "compiler": {
    "name": "solc",
    "version": "0.8.11+commit.d7f03943.Emscripten.clang"
  },
  "schemaVersion": "3.4.3",
  "updatedAt": "2022-02-13T19:27:07.992Z",
  "devdoc": {
    "kind": "dev",
    "methods": {
      "owner()": {
        "details": "Returns the address of the current owner."
      },
      "paused()": {
        "details": "Returns true if the contract is paused, and false otherwise."
      },
      "renounceOwnership()": {
        "details": "Leaves the contract without owner. It will not be possible to call `onlyOwner` functions anymore. Can only be called by the current owner. NOTE: Renouncing ownership will leave the contract without an owner, thereby removing any functionality that is only available to the owner."
      },
      "transferOwnership(address)": {
        "details": "Transfers ownership of the contract to a new account (`newOwner`). Can only be called by the current owner."
      }
    },
    "version": 1
  },
  "userdoc": {
    "kind": "user",
    "methods": {},
    "version": 1
  }
}