{
  "contractName": "TokenFarm",
  "abi": [
    {
      "inputs": [
        {
          "internalType": "contract DappToken",
          "name": "_dappToken",
          "type": "address"
        },
        {
          "internalType": "contract DaiToken",
          "name": "_daiToken",
          "type": "address"
        }
      ],
      "stateMutability": "nonpayable",
      "type": "constructor"
    },
    {
      "anonymous": false,
      "inputs": [
        {
          "indexed": true,
          "internalType": "address",
          "name": "previousOwner",
          "type": "address"
        },
        {
          "indexed": true,
          "internalType": "address",
          "name": "newOwner",
          "type": "address"
        }
      ],
      "name": "OwnershipTransferred",
      "type": "event"
    },
    {
      "anonymous": false,
      "inputs": [
        {
          "indexed": false,
          "internalType": "address",
          "name": "account",
          "type": "address"
        }
      ],
      "name": "Paused",
      "type": "event"
    },
    {
      "anonymous": false,
      "inputs": [
        {
          "indexed": false,
          "internalType": "address",
          "name": "account",
          "type": "address"
        }
      ],
      "name": "Unpaused",
      "type": "event"
    },
    {
      "inputs": [],
      "name": "daiToken",
      "outputs": [
        {
          "internalType": "contract DaiToken",
          "name": "",
          "type": "address"
        }
      ],
      "stateMutability": "view",
      "type": "function",
      "constant": true
    },
    {
      "inputs": [],
      "name": "dappToken",
      "outputs": [
        {
          "internalType": "contract DappToken",
          "name": "",
          "type": "address"
        }
      ],
      "stateMutability": "view",
      "type": "function",
      "constant": true
    },
    {
      "inputs": [
        {
          "internalType": "address",
          "name": "",
          "type": "address"
        }
      ],
      "name": "dappTokenBalance",
      "outputs": [
        {
          "internalType": "uint256",
          "name": "",
          "type": "uint256"
        }
      ],
      "stateMutability": "view",
      "type": "function",
      "constant": true
    },
    {
      "inputs": [
        {
          "internalType": "address",
          "name": "",
          "type": "address"
        }
      ],
      "name": "hasStaked",
      "outputs": [
        {
          "internalType": "bool",
          "name": "",
          "type": "bool"
        }
      ],
      "stateMutability": "view",
      "type": "function",
      "constant": true
    },
    {
      "inputs": [],
      "name": "interestRate",
      "outputs": [
        {
          "internalType": "uint256",
          "name": "",
          "type": "uint256"
        }
      ],
      "stateMutability": "view",
      "type": "function",
      "constant": true
    },
    {
      "inputs": [
        {
          "internalType": "address",
          "name": "",
          "type": "address"
        }
      ],
      "name": "isStaking",
      "outputs": [
        {
          "internalType": "bool",
          "name": "",
          "type": "bool"
        }
      ],
      "stateMutability": "view",
      "type": "function",
      "constant": true
    },
    {
      "inputs": [],
      "name": "lastUpdateTime",
      "outputs": [
        {
          "internalType": "uint256",
          "name": "",
          "type": "uint256"
        }
      ],
      "stateMutability": "view",
      "type": "function",
      "constant": true
    },
    {
      "inputs": [],
      "name": "name",
      "outputs": [
        {
          "internalType": "string",
          "name": "",
          "type": "string"
        }
      ],
      "stateMutability": "view",
      "type": "function",
      "constant": true
    },
    {
      "inputs": [],
      "name": "owner",
      "outputs": [
        {
          "internalType": "address",
          "name": "",
          "type": "address"
        }
      ],
      "stateMutability": "view",
      "type": "function",
      "constant": true
    },
    {
      "inputs": [],
      "name": "paused",
      "outputs": [
        {
          "internalType": "bool",
          "name": "",
          "type": "bool"
        }
      ],
      "stateMutability": "view",
      "type": "function",
      "constant": true
    },
    {
      "inputs": [],
      "name": "renounceOwnership",
      "outputs": [],
      "stateMutability": "nonpayable",
      "type": "function"
    },
    {
      "inputs": [
        {
          "internalType": "uint256",
          "name": "",
          "type": "uint256"
        }
      ],
      "name": "stakers",
      "outputs": [
        {
          "internalType": "address",
          "name": "",
          "type": "address"
        }
      ],
      "stateMutability": "view",
      "type": "function",
      "constant": true
    },
    {
      "inputs": [
        {
          "internalType": "address",
          "name": "",
          "type": "address"
        }
      ],
      "name": "stakingBalance",
      "outputs": [
        {
          "internalType": "uint256",
          "name": "",
          "type": "uint256"
        }
      ],
      "stateMutability": "view",
      "type": "function",
      "constant": true
    },
    {
      "inputs": [
        {
          "internalType": "address",
          "name": "newOwner",
          "type": "address"
        }
      ],
      "name": "transferOwnership",
      "outputs": [],
      "stateMutability": "nonpayable",
      "type": "function"
    },
    {
      "inputs": [
        {
          "internalType": "uint256",
          "name": "_amount",
          "type": "uint256"
        }
      ],
      "name": "stakeTokens",
      "outputs": [],
      "stateMutability": "nonpayable",
      "type": "function"
    },
    {
      "inputs": [],
      "name": "unstake",
      "outputs": [],
      "stateMutability": "nonpayable",
      "type": "function"
    },
    {
      "inputs": [],
      "name": "issueTokens",
      "outputs": [],
      "stateMutability": "nonpayable",
      "type": "function"
    },
    {
      "inputs": [],
      "name": "getTimeGapSinceLastBlock",
      "outputs": [
        {
          "internalType": "uint256",
          "name": "",
          "type": "uint256"
        }
      ],
      "stateMutability": "view",
      "type": "function",
      "constant": true
    },
    {
      "inputs": [
        {
          "internalType": "uint256",
          "name": "_amount",
          "type": "uint256"
        }
      ],
      "name": "rewardPerAmount",
      "outputs": [
        {
          "internalType": "uint256",
          "name": "",
          "type": "uint256"
        }
      ],
      "stateMutability": "view",
      "type": "function",
      "constant": true
    },
    {
      "inputs": [],
      "name": "claimRewards",
      "outputs": [],
      "stateMutability": "nonpayable",
      "type": "function"
    },
    {
      "inputs": [
        {
          "internalType": "uint256",
          "name": "_interestRate",
          "type": "uint256"
        }
      ],
      "name": "setInterest",
      "outputs": [],
      "stateMutability": "nonpayable",
      "type": "function"
    },
    {
      "inputs": [],
      "name": "pause",
      "outputs": [],
      "stateMutability": "nonpayable",
      "type": "function"
    },
    {
      "inputs": [],
      "name": "unpause",
      "outputs": [],
      "stateMutability": "nonpayable",
      "type": "function"
    },
    {
      "inputs": [
        {
          "internalType": "uint256",
          "name": "_amount",
          "type": "uint256"
        }
      ],
      "name": "withdrawAmount",
      "outputs": [],
      "stateMutability": "nonpayable",
      "type": "function"
    }
  ],
  "bytecode": "0x60806040526040518060400160405280600f81526020017f4461707020546f6b656e204661726d000000000000000000000000000000000081525060019080519060200190620000519291906200021c565b503480156200005f57600080fd5b50604051620023bd380380620023bd83398181016040528101906200008591906200038f565b620000a5620000996200015060201b60201c565b6200015860201b60201c565b60008060146101000a81548160ff02191690831515021790555081600260006101000a81548173ffffffffffffffffffffffffffffffffffffffff021916908373ffffffffffffffffffffffffffffffffffffffff16021790555080600360006101000a81548173ffffffffffffffffffffffffffffffffffffffff021916908373ffffffffffffffffffffffffffffffffffffffff16021790555042600a8190555050506200043b565b600033905090565b60008060009054906101000a900473ffffffffffffffffffffffffffffffffffffffff169050816000806101000a81548173ffffffffffffffffffffffffffffffffffffffff021916908373ffffffffffffffffffffffffffffffffffffffff1602179055508173ffffffffffffffffffffffffffffffffffffffff168173ffffffffffffffffffffffffffffffffffffffff167f8be0079c531659141344cd1fd0a4f28419497f9722a3daafe3b4186f6b6457e060405160405180910390a35050565b8280546200022a9062000405565b90600052602060002090601f0160209004810192826200024e57600085556200029a565b82601f106200026957805160ff19168380011785556200029a565b828001600101855582156200029a579182015b82811115620002995782518255916020019190600101906200027c565b5b509050620002a99190620002ad565b5090565b5b80821115620002c8576000816000905550600101620002ae565b5090565b600080fd5b600073ffffffffffffffffffffffffffffffffffffffff82169050919050565b6000620002fe82620002d1565b9050919050565b60006200031282620002f1565b9050919050565b620003248162000305565b81146200033057600080fd5b50565b600081519050620003448162000319565b92915050565b60006200035782620002f1565b9050919050565b62000369816200034a565b81146200037557600080fd5b50565b60008151905062000389816200035e565b92915050565b60008060408385031215620003a957620003a8620002cc565b5b6000620003b98582860162000333565b9250506020620003cc8582860162000378565b9150509250929050565b7f4e487b7100000000000000000000000000000000000000000000000000000000600052602260045260246000fd5b600060028204905060018216806200041e57607f821691505b60208210811415620004355762000434620003d6565b5b50919050565b611f72806200044b6000396000f3fe608060405234801561001057600080fd5b50600436106101585760003560e01c80637547c7a3116100c3578063be22f5461161007c578063be22f54614610331578063c8f33c911461034f578063c93c8f341461036d578063d57103c71461039d578063f2fde38b146103cd578063fd5e6dd1146103e957610158565b80637547c7a3146102815780637c3a00fd1461029d5780638456cb59146102bb5780638da5cb5b146102c55780639d022c3f146102e3578063b56490111461031357610158565b806345bc78ab1161011557806345bc78ab146101d15780635c975abb146102015780635eb186f81461021f57806360ab58521461023d5780636f49712b14610247578063715018a61461027757610158565b80630562b9f71461015d57806306fdde03146101795780631d086720146101975780632def6620146101b3578063372500ab146101bd5780633f4ba83a146101c7575b600080fd5b6101776004803603810190610172919061158c565b610419565b005b61018161063c565b60405161018e9190611652565b60405180910390f35b6101b160048036038101906101ac919061158c565b6106ca565b005b6101bb610750565b005b6101c5610918565b005b6101cf610ae4565b005b6101eb60048036038101906101e691906116d2565b610b6a565b6040516101f8919061170e565b60405180910390f35b610209610b82565b6040516102169190611744565b60405180910390f35b610227610b98565b60405161023491906117be565b60405180910390f35b610245610bbe565b005b610261600480360381019061025c91906116d2565b610cf2565b60405161026e9190611744565b60405180910390f35b61027f610d12565b005b61029b6004803603810190610296919061158c565b610d9a565b005b6102a5611086565b6040516102b2919061170e565b60405180910390f35b6102c361108c565b005b6102cd611112565b6040516102da91906117e8565b60405180910390f35b6102fd60048036038101906102f891906116d2565b61113b565b60405161030a919061170e565b60405180910390f35b61031b611153565b604051610328919061170e565b60405180910390f35b610339611168565b6040516103469190611824565b60405180910390f35b61035761118e565b604051610364919061170e565b60405180910390f35b610387600480360381019061038291906116d2565b611194565b6040516103949190611744565b60405180910390f35b6103b760048036038101906103b2919061158c565b6111b4565b6040516103c4919061170e565b60405180910390f35b6103e760048036038101906103e291906116d2565b61120a565b005b61040360048036038101906103fe919061158c565b611302565b60405161041091906117e8565b60405180910390f35b6000600560003373ffffffffffffffffffffffffffffffffffffffff1673ffffffffffffffffffffffffffffffffffffffff168152602001908152602001600020549050818110156104a0576040517f08c379a0000000000000000000000000000000000000000000000000000000008152600401610497906118b1565b60405180910390fd5b600360009054906101000a900473ffffffffffffffffffffffffffffffffffffffff1673ffffffffffffffffffffffffffffffffffffffff1663a9059cbb33846040518363ffffffff1660e01b81526004016104fd9291906118d1565b6020604051808303816000875af115801561051c573d6000803e3d6000fd5b505050506040513d601f19601f820116820180604052508101906105409190611926565b5081600560003373ffffffffffffffffffffffffffffffffffffffff1673ffffffffffffffffffffffffffffffffffffffff16815260200190815260200160002060008282546105909190611982565b925050819055506000600560003373ffffffffffffffffffffffffffffffffffffffff1673ffffffffffffffffffffffffffffffffffffffff168152602001908152602001600020541415610638576000600760003373ffffffffffffffffffffffffffffffffffffffff1673ffffffffffffffffffffffffffffffffffffffff16815260200190815260200160002060006101000a81548160ff0219169083151502179055505b5050565b60018054610649906119e5565b80601f0160208091040260200160405190810160405280929190818152602001828054610675906119e5565b80156106c25780601f10610697576101008083540402835291602001916106c2565b820191906000526020600020905b8154815290600101906020018083116106a557829003601f168201915b505050505081565b6106d2611341565b73ffffffffffffffffffffffffffffffffffffffff166106f0611112565b73ffffffffffffffffffffffffffffffffffffffff1614610746576040517f08c379a000000000000000000000000000000000000000000000000000000000815260040161073d90611a63565b60405180910390fd5b8060098190555050565b6000600560003373ffffffffffffffffffffffffffffffffffffffff1673ffffffffffffffffffffffffffffffffffffffff168152602001908152602001600020549050600081116107d7576040517f08c379a00000000000000000000000000000000000000000000000000000000081526004016107ce90611af5565b60405180910390fd5b600360009054906101000a900473ffffffffffffffffffffffffffffffffffffffff1673ffffffffffffffffffffffffffffffffffffffff1663a9059cbb33836040518363ffffffff1660e01b81526004016108349291906118d1565b6020604051808303816000875af1158015610853573d6000803e3d6000fd5b505050506040513d601f19601f820116820180604052508101906108779190611926565b506000600560003373ffffffffffffffffffffffffffffffffffffffff1673ffffffffffffffffffffffffffffffffffffffff168152602001908152602001600020819055506000600760003373ffffffffffffffffffffffffffffffffffffffff1673ffffffffffffffffffffffffffffffffffffffff16815260200190815260200160002060006101000a81548160ff02191690831515021790555050565b6000600860003373ffffffffffffffffffffffffffffffffffffffff1673ffffffffffffffffffffffffffffffffffffffff1681526020019081526020016000205490506000811180156109ab575080600860003373ffffffffffffffffffffffffffffffffffffffff1673ffffffffffffffffffffffffffffffffffffffff1681526020019081526020016000205410155b6109ea576040517f08c379a00000000000000000000000000000000000000000000000000000000081526004016109e190611b87565b60405180910390fd5b600260009054906101000a900473ffffffffffffffffffffffffffffffffffffffff1673ffffffffffffffffffffffffffffffffffffffff1663a9059cbb33836040518363ffffffff1660e01b8152600401610a479291906118d1565b6020604051808303816000875af1158015610a66573d6000803e3d6000fd5b505050506040513d601f19601f82011682018060405250810190610a8a9190611926565b5080600860003373ffffffffffffffffffffffffffffffffffffffff1673ffffffffffffffffffffffffffffffffffffffff1681526020019081526020016000206000828254610ada9190611982565b9250508190555050565b610aec611341565b73ffffffffffffffffffffffffffffffffffffffff16610b0a611112565b73ffffffffffffffffffffffffffffffffffffffff1614610b60576040517f08c379a0000000000000000000000000000000000000000000000000000000008152600401610b5790611a63565b60405180910390fd5b610b68611349565b565b60056020528060005260406000206000915090505481565b60008060149054906101000a900460ff16905090565b600260009054906101000a900473ffffffffffffffffffffffffffffffffffffffff1681565b6000610bc8611153565b1415610bd357610cf0565b42600a8190555060005b600480549050811015610cee57600060048281548110610c0057610bff611ba7565b5b9060005260206000200160009054906101000a900473ffffffffffffffffffffffffffffffffffffffff1690506000600560008373ffffffffffffffffffffffffffffffffffffffff1673ffffffffffffffffffffffffffffffffffffffff1681526020019081526020016000205490506000811115610cd957610c83816111b4565b600860003373ffffffffffffffffffffffffffffffffffffffff1673ffffffffffffffffffffffffffffffffffffffff1681526020019081526020016000206000828254610cd19190611bd6565b925050819055505b50508080610ce690611c2c565b915050610bdd565b505b565b60076020528060005260406000206000915054906101000a900460ff1681565b610d1a611341565b73ffffffffffffffffffffffffffffffffffffffff16610d38611112565b73ffffffffffffffffffffffffffffffffffffffff1614610d8e576040517f08c379a0000000000000000000000000000000000000000000000000000000008152600401610d8590611a63565b60405180910390fd5b610d9860006113ea565b565b610da2610b82565b15610de2576040517f08c379a0000000000000000000000000000000000000000000000000000000008152600401610dd990611cc1565b60405180910390fd5b60008111610e25576040517f08c379a0000000000000000000000000000000000000000000000000000000008152600401610e1c90611d2d565b60405180910390fd5b600360009054906101000a900473ffffffffffffffffffffffffffffffffffffffff1673ffffffffffffffffffffffffffffffffffffffff166323b872dd3330846040518463ffffffff1660e01b8152600401610e8493929190611d4d565b6020604051808303816000875af1158015610ea3573d6000803e3d6000fd5b505050506040513d601f19601f82011682018060405250810190610ec79190611926565b5080600560003373ffffffffffffffffffffffffffffffffffffffff1673ffffffffffffffffffffffffffffffffffffffff1681526020019081526020016000206000828254610f179190611bd6565b92505081905550600660003373ffffffffffffffffffffffffffffffffffffffff1673ffffffffffffffffffffffffffffffffffffffff16815260200190815260200160002060009054906101000a900460ff16610fd3576004339080600181540180825580915050600190039060005260206000200160009091909190916101000a81548173ffffffffffffffffffffffffffffffffffffffff021916908373ffffffffffffffffffffffffffffffffffffffff1602179055505b6001600660003373ffffffffffffffffffffffffffffffffffffffff1673ffffffffffffffffffffffffffffffffffffffff16815260200190815260200160002060006101000a81548160ff0219169083151502179055506001600760003373ffffffffffffffffffffffffffffffffffffffff1673ffffffffffffffffffffffffffffffffffffffff16815260200190815260200160002060006101000a81548160ff02191690831515021790555050565b60095481565b611094611341565b73ffffffffffffffffffffffffffffffffffffffff166110b2611112565b73ffffffffffffffffffffffffffffffffffffffff1614611108576040517f08c379a00000000000000000000000000000000000000000000000000000000081526004016110ff90611a63565b60405180910390fd5b6111106114ae565b565b60008060009054906101000a900473ffffffffffffffffffffffffffffffffffffffff16905090565b60086020528060005260406000206000915090505481565b600042600a546111639190611982565b905090565b600360009054906101000a900473ffffffffffffffffffffffffffffffffffffffff1681565b600a5481565b60066020528060005260406000206000915054906101000a900460ff1681565b6000808214156111c75760009050611205565b6301e185586111d4611153565b6111de9190611db3565b60646009546111ed9190611db3565b836111f89190611de4565b6112029190611de4565b90505b919050565b611212611341565b73ffffffffffffffffffffffffffffffffffffffff16611230611112565b73ffffffffffffffffffffffffffffffffffffffff1614611286576040517f08c379a000000000000000000000000000000000000000000000000000000000815260040161127d90611a63565b60405180910390fd5b600073ffffffffffffffffffffffffffffffffffffffff168173ffffffffffffffffffffffffffffffffffffffff1614156112f6576040517f08c379a00000000000000000000000000000000000000000000000000000000081526004016112ed90611eb0565b60405180910390fd5b6112ff816113ea565b50565b6004818154811061131257600080fd5b906000526020600020016000915054906101000a900473ffffffffffffffffffffffffffffffffffffffff1681565b600033905090565b611351610b82565b611390576040517f08c379a000000000000000000000000000000000000000000000000000000000815260040161138790611f1c565b60405180910390fd5b60008060146101000a81548160ff0219169083151502179055507f5db9ee0a495bf2e6ff9c91a7834c1ba4fdd244a5e8aa4e537bd38aeae4b073aa6113d3611341565b6040516113e091906117e8565b60405180910390a1565b60008060009054906101000a900473ffffffffffffffffffffffffffffffffffffffff169050816000806101000a81548173ffffffffffffffffffffffffffffffffffffffff021916908373ffffffffffffffffffffffffffffffffffffffff1602179055508173ffffffffffffffffffffffffffffffffffffffff168173ffffffffffffffffffffffffffffffffffffffff167f8be0079c531659141344cd1fd0a4f28419497f9722a3daafe3b4186f6b6457e060405160405180910390a35050565b6114b6610b82565b156114f6576040517f08c379a00000000000000000000000000000000000000000000000000000000081526004016114ed90611cc1565b60405180910390fd5b6001600060146101000a81548160ff0219169083151502179055507f62e78cea01bee320cd4e420270b5ea74000d11b0c9f74754ebdbfc544b05a25861153a611341565b60405161154791906117e8565b60405180910390a1565b600080fd5b6000819050919050565b61156981611556565b811461157457600080fd5b50565b60008135905061158681611560565b92915050565b6000602082840312156115a2576115a1611551565b5b60006115b084828501611577565b91505092915050565b600081519050919050565b600082825260208201905092915050565b60005b838110156115f35780820151818401526020810190506115d8565b83811115611602576000848401525b50505050565b6000601f19601f8301169050919050565b6000611624826115b9565b61162e81856115c4565b935061163e8185602086016115d5565b61164781611608565b840191505092915050565b6000602082019050818103600083015261166c8184611619565b905092915050565b600073ffffffffffffffffffffffffffffffffffffffff82169050919050565b600061169f82611674565b9050919050565b6116af81611694565b81146116ba57600080fd5b50565b6000813590506116cc816116a6565b92915050565b6000602082840312156116e8576116e7611551565b5b60006116f6848285016116bd565b91505092915050565b61170881611556565b82525050565b600060208201905061172360008301846116ff565b92915050565b60008115159050919050565b61173e81611729565b82525050565b60006020820190506117596000830184611735565b92915050565b6000819050919050565b600061178461177f61177a84611674565b61175f565b611674565b9050919050565b600061179682611769565b9050919050565b60006117a88261178b565b9050919050565b6117b88161179d565b82525050565b60006020820190506117d360008301846117af565b92915050565b6117e281611694565b82525050565b60006020820190506117fd60008301846117d9565b92915050565b600061180e8261178b565b9050919050565b61181e81611803565b82525050565b60006020820190506118396000830184611815565b92915050565b7f776974686472617720616d6f756e742068617320746f2067726561746572207460008201527f68616e206f7220657175616c20746f207374616b65642062616c616e63650000602082015250565b600061189b603e836115c4565b91506118a68261183f565b604082019050919050565b600060208201905081810360008301526118ca8161188e565b9050919050565b60006040820190506118e660008301856117d9565b6118f360208301846116ff565b9392505050565b61190381611729565b811461190e57600080fd5b50565b600081519050611920816118fa565b92915050565b60006020828403121561193c5761193b611551565b5b600061194a84828501611911565b91505092915050565b7f4e487b7100000000000000000000000000000000000000000000000000000000600052601160045260246000fd5b600061198d82611556565b915061199883611556565b9250828210156119ab576119aa611953565b5b828203905092915050565b7f4e487b7100000000000000000000000000000000000000000000000000000000600052602260045260246000fd5b600060028204905060018216806119fd57607f821691505b60208210811415611a1157611a106119b6565b5b50919050565b7f4f776e61626c653a2063616c6c6572206973206e6f7420746865206f776e6572600082015250565b6000611a4d6020836115c4565b9150611a5882611a17565b602082019050919050565b60006020820190508181036000830152611a7c81611a40565b9050919050565b7f776974686472617720616d6f756e742068617320746f2067726561746572207460008201527f68616e207a65726f000000000000000000000000000000000000000000000000602082015250565b6000611adf6028836115c4565b9150611aea82611a83565b604082019050919050565b60006020820190508181036000830152611b0e81611ad2565b9050919050565b7f636c61696d20616d6f756e742068617320746f2067726561746572207468616e60008201527f207a65726f200000000000000000000000000000000000000000000000000000602082015250565b6000611b716026836115c4565b9150611b7c82611b15565b604082019050919050565b60006020820190508181036000830152611ba081611b64565b9050919050565b7f4e487b7100000000000000000000000000000000000000000000000000000000600052603260045260246000fd5b6000611be182611556565b9150611bec83611556565b9250827fffffffffffffffffffffffffffffffffffffffffffffffffffffffffffffffff03821115611c2157611c20611953565b5b828201905092915050565b6000611c3782611556565b91507fffffffffffffffffffffffffffffffffffffffffffffffffffffffffffffffff821415611c6a57611c69611953565b5b600182019050919050565b7f5061757361626c653a2070617573656400000000000000000000000000000000600082015250565b6000611cab6010836115c4565b9150611cb682611c75565b602082019050919050565b60006020820190508181036000830152611cda81611c9e565b9050919050565b7f546f6b656e732073686f756c64206265206d6f7265207468616e203000000000600082015250565b6000611d17601c836115c4565b9150611d2282611ce1565b602082019050919050565b60006020820190508181036000830152611d4681611d0a565b9050919050565b6000606082019050611d6260008301866117d9565b611d6f60208301856117d9565b611d7c60408301846116ff565b949350505050565b7f4e487b7100000000000000000000000000000000000000000000000000000000600052601260045260246000fd5b6000611dbe82611556565b9150611dc983611556565b925082611dd957611dd8611d84565b5b828204905092915050565b6000611def82611556565b9150611dfa83611556565b9250817fffffffffffffffffffffffffffffffffffffffffffffffffffffffffffffffff0483118215151615611e3357611e32611953565b5b828202905092915050565b7f4f776e61626c653a206e6577206f776e657220697320746865207a65726f206160008201527f6464726573730000000000000000000000000000000000000000000000000000602082015250565b6000611e9a6026836115c4565b9150611ea582611e3e565b604082019050919050565b60006020820190508181036000830152611ec981611e8d565b9050919050565b7f5061757361626c653a206e6f7420706175736564000000000000000000000000600082015250565b6000611f066014836115c4565b9150611f1182611ed0565b602082019050919050565b60006020820190508181036000830152611f3581611ef9565b905091905056fea2646970667358221220545ebb47ec059b11ae339b8f89618a9a5ce1dfbcf1820d5756a7e138e039fa5464736f6c634300080b0033",
  "immutableReferences": {},
  "source": "// SPDX-License-Identifier: MIT\r\npragma solidity ^0.8.0;\r\n\r\nimport \"@openzeppelin/contracts/access/Ownable.sol\";\r\nimport \"@openzeppelin/contracts/security/Pausable.sol\";\r\nimport \"./DappToken.sol\";\r\nimport \"./DaiToken.sol\";\r\n\r\ncontract TokenFarm is Ownable, Pausable {\r\n    string public name = \"Dapp Token Farm\";\r\n    DappToken public dappToken;\r\n    DaiToken public daiToken;\r\n\r\n    address[] public stakers;\r\n    mapping(address => uint) public stakingBalance;\r\n    mapping(address => bool) public hasStaked;\r\n    mapping(address => bool) public isStaking;\r\n\r\n    mapping(address => uint) public dappTokenBalance;\r\n    uint public interestRate;\r\n    uint public lastUpdateTime; // last block updated time  \r\n    uint constant secondsPerYear = 31556952;\r\n\r\n    constructor (DappToken _dappToken, DaiToken _daiToken) {\r\n        dappToken = _dappToken;\r\n        daiToken = _daiToken;\r\n        lastUpdateTime = block.timestamp;\r\n    }\r\n\r\n    function stakeTokens(uint _amount) public whenNotPaused {\r\n\r\n        require (_amount > 0, \"Tokens should be more than 0\");\r\n        daiToken.transferFrom(msg.sender, address(this), _amount);\r\n        stakingBalance[msg.sender] += _amount; \r\n\r\n        if(!hasStaked[msg.sender]) {\r\n            stakers.push(msg.sender);\r\n        } \r\n\r\n        hasStaked[msg.sender] = true;\r\n        isStaking[msg.sender] = true;\r\n    }\r\n\r\n    function unstake() public {\r\n        uint balance = stakingBalance[msg.sender];  \r\n        require(balance > 0, \"withdraw amount has to greater than zero\");\r\n        daiToken.transfer(msg.sender, balance);\r\n\r\n        stakingBalance[msg.sender] = 0;\r\n        isStaking[msg.sender] = false;\r\n    }\r\n\r\n    function issueTokens() public {\r\n        if(getTimeGapSinceLastBlock() == 0) {\r\n            return;\r\n        }\r\n        lastUpdateTime = block.timestamp; // update timestamp\r\n        //https://solidity-by-example.org/defi/staking-rewards/\r\n        for(uint i = 0; i  < stakers.length; i++) {\r\n            address receipient = stakers[i];\r\n            uint balance = stakingBalance[receipient];  \r\n\r\n            if (balance > 0) {\r\n                dappTokenBalance[msg.sender] += rewardPerAmount(balance);\r\n            }\r\n        }\r\n    }\r\n\r\n    function getTimeGapSinceLastBlock() public view returns (uint) {\r\n        return (lastUpdateTime - block.timestamp);\r\n    } \r\n\r\n    function rewardPerAmount(uint _amount) public view returns (uint) {\r\n        if(_amount == 0) {\r\n            return 0;\r\n        }\r\n        return _amount * (interestRate / 100) * (getTimeGapSinceLastBlock() / secondsPerYear);\r\n    }\r\n\r\n    function claimRewards() public {\r\n        uint balance = dappTokenBalance[msg.sender];  \r\n        require(balance > 0 && dappTokenBalance[msg.sender] >= balance, \"claim amount has to greater than zero \");\r\n        dappToken.transfer(msg.sender, balance);\r\n\r\n        dappTokenBalance[msg.sender] -= balance;\r\n    }\r\n\r\n    function setInterest(uint _interestRate) public onlyOwner {\r\n        interestRate = _interestRate;\r\n    }\r\n\r\n    function pause() public onlyOwner {\r\n        _pause();\r\n    }\r\n\r\n    function unpause() public onlyOwner {\r\n        _unpause();\r\n    }\r\n\r\n    function withdrawAmount(uint _amount) public {\r\n        uint balance = stakingBalance[msg.sender];  \r\n        require(balance >= _amount, \"withdraw amount has to greater than or equal to staked balance\");\r\n        daiToken.transfer(msg.sender, _amount);\r\n\r\n        stakingBalance[msg.sender] -= _amount;\r\n        if(stakingBalance[msg.sender] == 0) {\r\n            isStaking[msg.sender] = false;\r\n        }\r\n    }\r\n\r\n}\r\n",
  "sourcePath": "C:\\Development\\koffeemakerz\\test-staking\\src\\contracts\\TokenFarm.sol",
  "compiler": {
    "name": "solc",
    "version": "0.8.11+commit.d7f03943.Emscripten.clang"
  },
  "schemaVersion": "3.4.3",
  "updatedAt": "2022-02-06T22:51:05.050Z",
  "networkType": "ethereum",
  "devdoc": {
    "kind": "dev",
    "methods": {
      "owner()": {
        "details": "Returns the address of the current owner."
      },
      "paused()": {
        "details": "Returns true if the contract is paused, and false otherwise."
      },
      "renounceOwnership()": {
        "details": "Leaves the contract without owner. It will not be possible to call `onlyOwner` functions anymore. Can only be called by the current owner. NOTE: Renouncing ownership will leave the contract without an owner, thereby removing any functionality that is only available to the owner."
      },
      "transferOwnership(address)": {
        "details": "Transfers ownership of the contract to a new account (`newOwner`). Can only be called by the current owner."
      }
    },
    "version": 1
  },
  "userdoc": {
    "kind": "user",
    "methods": {},
    "version": 1
  }
}