{
  "contractName": "TokenFarm",
  "abi": [
    {
      "inputs": [
        {
          "internalType": "contract DappToken",
          "name": "_dappToken",
          "type": "address"
        },
        {
          "internalType": "contract DaiToken",
          "name": "_daiToken",
          "type": "address"
        }
      ],
      "stateMutability": "nonpayable",
      "type": "constructor"
    },
    {
      "inputs": [],
      "name": "daiToken",
      "outputs": [
        {
          "internalType": "contract DaiToken",
          "name": "",
          "type": "address"
        }
      ],
      "stateMutability": "view",
      "type": "function",
      "constant": true
    },
    {
      "inputs": [],
      "name": "dappToken",
      "outputs": [
        {
          "internalType": "contract DappToken",
          "name": "",
          "type": "address"
        }
      ],
      "stateMutability": "view",
      "type": "function",
      "constant": true
    },
    {
      "inputs": [
        {
          "internalType": "address",
          "name": "",
          "type": "address"
        }
      ],
      "name": "hasStaked",
      "outputs": [
        {
          "internalType": "bool",
          "name": "",
          "type": "bool"
        }
      ],
      "stateMutability": "view",
      "type": "function",
      "constant": true
    },
    {
      "inputs": [
        {
          "internalType": "address",
          "name": "",
          "type": "address"
        }
      ],
      "name": "isStaking",
      "outputs": [
        {
          "internalType": "bool",
          "name": "",
          "type": "bool"
        }
      ],
      "stateMutability": "view",
      "type": "function",
      "constant": true
    },
    {
      "inputs": [],
      "name": "name",
      "outputs": [
        {
          "internalType": "string",
          "name": "",
          "type": "string"
        }
      ],
      "stateMutability": "view",
      "type": "function",
      "constant": true
    },
    {
      "inputs": [
        {
          "internalType": "uint256",
          "name": "",
          "type": "uint256"
        }
      ],
      "name": "stakers",
      "outputs": [
        {
          "internalType": "address",
          "name": "",
          "type": "address"
        }
      ],
      "stateMutability": "view",
      "type": "function",
      "constant": true
    },
    {
      "inputs": [
        {
          "internalType": "address",
          "name": "",
          "type": "address"
        }
      ],
      "name": "stakingBalance",
      "outputs": [
        {
          "internalType": "uint256",
          "name": "",
          "type": "uint256"
        }
      ],
      "stateMutability": "view",
      "type": "function",
      "constant": true
    },
    {
      "inputs": [
        {
          "internalType": "uint256",
          "name": "_amount",
          "type": "uint256"
        }
      ],
      "name": "stakeTokens",
      "outputs": [],
      "stateMutability": "nonpayable",
      "type": "function"
    },
    {
      "inputs": [],
      "name": "unstake",
      "outputs": [],
      "stateMutability": "nonpayable",
      "type": "function"
    },
    {
      "inputs": [],
      "name": "issueTokens",
      "outputs": [],
      "stateMutability": "nonpayable",
      "type": "function"
    }
  ],
  "bytecode": "0x60806040526040518060400160405280600f81526020017f4461707020546f6b656e204661726d0000000000000000000000000000000000815250600090805190602001906200005192919062000150565b503480156200005f57600080fd5b50604051620013d8380380620013d88339818101604052810190620000859190620002c3565b81600160006101000a81548173ffffffffffffffffffffffffffffffffffffffff021916908373ffffffffffffffffffffffffffffffffffffffff16021790555080600260006101000a81548173ffffffffffffffffffffffffffffffffffffffff021916908373ffffffffffffffffffffffffffffffffffffffff16021790555033600360006101000a81548173ffffffffffffffffffffffffffffffffffffffff021916908373ffffffffffffffffffffffffffffffffffffffff16021790555050506200036f565b8280546200015e9062000339565b90600052602060002090601f016020900481019282620001825760008555620001ce565b82601f106200019d57805160ff1916838001178555620001ce565b82800160010185558215620001ce579182015b82811115620001cd578251825591602001919060010190620001b0565b5b509050620001dd9190620001e1565b5090565b5b80821115620001fc576000816000905550600101620001e2565b5090565b600080fd5b600073ffffffffffffffffffffffffffffffffffffffff82169050919050565b6000620002328262000205565b9050919050565b6000620002468262000225565b9050919050565b620002588162000239565b81146200026457600080fd5b50565b60008151905062000278816200024d565b92915050565b60006200028b8262000225565b9050919050565b6200029d816200027e565b8114620002a957600080fd5b50565b600081519050620002bd8162000292565b92915050565b60008060408385031215620002dd57620002dc62000200565b5b6000620002ed8582860162000267565b92505060206200030085828601620002ac565b9150509250929050565b7f4e487b7100000000000000000000000000000000000000000000000000000000600052602260045260246000fd5b600060028204905060018216806200035257607f821691505b602082108114156200036957620003686200030a565b5b50919050565b611059806200037f6000396000f3fe608060405234801561001057600080fd5b506004361061009e5760003560e01c80636f49712b116100665780636f49712b146101235780637547c7a314610153578063be22f5461461016f578063c93c8f341461018d578063fd5e6dd1146101bd5761009e565b806306fdde03146100a35780632def6620146100c157806345bc78ab146100cb5780635eb186f8146100fb57806360ab585214610119575b600080fd5b6100ab6101ed565b6040516100b89190610a4d565b60405180910390f35b6100c961027b565b005b6100e560048036038101906100e09190610ad2565b610443565b6040516100f29190610b18565b60405180910390f35b61010361045b565b6040516101109190610b92565b60405180910390f35b610121610481565b005b61013d60048036038101906101389190610ad2565b61066b565b60405161014a9190610bc8565b60405180910390f35b61016d60048036038101906101689190610c0f565b61068b565b005b61017761092f565b6040516101849190610c5d565b60405180910390f35b6101a760048036038101906101a29190610ad2565b610955565b6040516101b49190610bc8565b60405180910390f35b6101d760048036038101906101d29190610c0f565b610975565b6040516101e49190610c87565b60405180910390f35b600080546101fa90610cd1565b80601f016020809104026020016040519081016040528092919081815260200182805461022690610cd1565b80156102735780601f1061024857610100808354040283529160200191610273565b820191906000526020600020905b81548152906001019060200180831161025657829003601f168201915b505050505081565b6000600560003373ffffffffffffffffffffffffffffffffffffffff1673ffffffffffffffffffffffffffffffffffffffff16815260200190815260200160002054905060008111610302576040517f08c379a00000000000000000000000000000000000000000000000000000000081526004016102f990610d75565b60405180910390fd5b600260009054906101000a900473ffffffffffffffffffffffffffffffffffffffff1673ffffffffffffffffffffffffffffffffffffffff1663a9059cbb33836040518363ffffffff1660e01b815260040161035f929190610d95565b6020604051808303816000875af115801561037e573d6000803e3d6000fd5b505050506040513d601f19601f820116820180604052508101906103a29190610dea565b506000600560003373ffffffffffffffffffffffffffffffffffffffff1673ffffffffffffffffffffffffffffffffffffffff168152602001908152602001600020819055506000600760003373ffffffffffffffffffffffffffffffffffffffff1673ffffffffffffffffffffffffffffffffffffffff16815260200190815260200160002060006101000a81548160ff02191690831515021790555050565b60056020528060005260406000206000915090505481565b600160009054906101000a900473ffffffffffffffffffffffffffffffffffffffff1681565b600360009054906101000a900473ffffffffffffffffffffffffffffffffffffffff1673ffffffffffffffffffffffffffffffffffffffff163373ffffffffffffffffffffffffffffffffffffffff1614610511576040517f08c379a000000000000000000000000000000000000000000000000000000000815260040161050890610e63565b60405180910390fd5b60005b6004805490508110156106685760006004828154811061053757610536610e83565b5b9060005260206000200160009054906101000a900473ffffffffffffffffffffffffffffffffffffffff1690506000600560008373ffffffffffffffffffffffffffffffffffffffff1673ffffffffffffffffffffffffffffffffffffffff168152602001908152602001600020549050600081111561065357600160009054906101000a900473ffffffffffffffffffffffffffffffffffffffff1673ffffffffffffffffffffffffffffffffffffffff1663a9059cbb83836040518363ffffffff1660e01b815260040161060e929190610d95565b6020604051808303816000875af115801561062d573d6000803e3d6000fd5b505050506040513d601f19601f820116820180604052508101906106519190610dea565b505b5050808061066090610ee1565b915050610514565b50565b60076020528060005260406000206000915054906101000a900460ff1681565b600081116106ce576040517f08c379a00000000000000000000000000000000000000000000000000000000081526004016106c590610f76565b60405180910390fd5b600260009054906101000a900473ffffffffffffffffffffffffffffffffffffffff1673ffffffffffffffffffffffffffffffffffffffff166323b872dd3330846040518463ffffffff1660e01b815260040161072d93929190610f96565b6020604051808303816000875af115801561074c573d6000803e3d6000fd5b505050506040513d601f19601f820116820180604052508101906107709190610dea565b5080600560003373ffffffffffffffffffffffffffffffffffffffff1673ffffffffffffffffffffffffffffffffffffffff16815260200190815260200160002060008282546107c09190610fcd565b92505081905550600660003373ffffffffffffffffffffffffffffffffffffffff1673ffffffffffffffffffffffffffffffffffffffff16815260200190815260200160002060009054906101000a900460ff1661087c576004339080600181540180825580915050600190039060005260206000200160009091909190916101000a81548173ffffffffffffffffffffffffffffffffffffffff021916908373ffffffffffffffffffffffffffffffffffffffff1602179055505b6001600660003373ffffffffffffffffffffffffffffffffffffffff1673ffffffffffffffffffffffffffffffffffffffff16815260200190815260200160002060006101000a81548160ff0219169083151502179055506001600760003373ffffffffffffffffffffffffffffffffffffffff1673ffffffffffffffffffffffffffffffffffffffff16815260200190815260200160002060006101000a81548160ff02191690831515021790555050565b600260009054906101000a900473ffffffffffffffffffffffffffffffffffffffff1681565b60066020528060005260406000206000915054906101000a900460ff1681565b6004818154811061098557600080fd5b906000526020600020016000915054906101000a900473ffffffffffffffffffffffffffffffffffffffff1681565b600081519050919050565b600082825260208201905092915050565b60005b838110156109ee5780820151818401526020810190506109d3565b838111156109fd576000848401525b50505050565b6000601f19601f8301169050919050565b6000610a1f826109b4565b610a2981856109bf565b9350610a398185602086016109d0565b610a4281610a03565b840191505092915050565b60006020820190508181036000830152610a678184610a14565b905092915050565b600080fd5b600073ffffffffffffffffffffffffffffffffffffffff82169050919050565b6000610a9f82610a74565b9050919050565b610aaf81610a94565b8114610aba57600080fd5b50565b600081359050610acc81610aa6565b92915050565b600060208284031215610ae857610ae7610a6f565b5b6000610af684828501610abd565b91505092915050565b6000819050919050565b610b1281610aff565b82525050565b6000602082019050610b2d6000830184610b09565b92915050565b6000819050919050565b6000610b58610b53610b4e84610a74565b610b33565b610a74565b9050919050565b6000610b6a82610b3d565b9050919050565b6000610b7c82610b5f565b9050919050565b610b8c81610b71565b82525050565b6000602082019050610ba76000830184610b83565b92915050565b60008115159050919050565b610bc281610bad565b82525050565b6000602082019050610bdd6000830184610bb9565b92915050565b610bec81610aff565b8114610bf757600080fd5b50565b600081359050610c0981610be3565b92915050565b600060208284031215610c2557610c24610a6f565b5b6000610c3384828501610bfa565b91505092915050565b6000610c4782610b5f565b9050919050565b610c5781610c3c565b82525050565b6000602082019050610c726000830184610c4e565b92915050565b610c8181610a94565b82525050565b6000602082019050610c9c6000830184610c78565b92915050565b7f4e487b7100000000000000000000000000000000000000000000000000000000600052602260045260246000fd5b60006002820490506001821680610ce957607f821691505b60208210811415610cfd57610cfc610ca2565b5b50919050565b7f776974686472617720616d6f756e742068617320746f2067726561746572207460008201527f68616e207a65726f000000000000000000000000000000000000000000000000602082015250565b6000610d5f6028836109bf565b9150610d6a82610d03565b604082019050919050565b60006020820190508181036000830152610d8e81610d52565b9050919050565b6000604082019050610daa6000830185610c78565b610db76020830184610b09565b9392505050565b610dc781610bad565b8114610dd257600080fd5b50565b600081519050610de481610dbe565b92915050565b600060208284031215610e0057610dff610a6f565b5b6000610e0e84828501610dd5565b91505092915050565b7f63616c6c6572206d757374206265206f776e6572000000000000000000000000600082015250565b6000610e4d6014836109bf565b9150610e5882610e17565b602082019050919050565b60006020820190508181036000830152610e7c81610e40565b9050919050565b7f4e487b7100000000000000000000000000000000000000000000000000000000600052603260045260246000fd5b7f4e487b7100000000000000000000000000000000000000000000000000000000600052601160045260246000fd5b6000610eec82610aff565b91507fffffffffffffffffffffffffffffffffffffffffffffffffffffffffffffffff821415610f1f57610f1e610eb2565b5b600182019050919050565b7f546f6b656e732073686f756c64206265206d6f7265207468616e203000000000600082015250565b6000610f60601c836109bf565b9150610f6b82610f2a565b602082019050919050565b60006020820190508181036000830152610f8f81610f53565b9050919050565b6000606082019050610fab6000830186610c78565b610fb86020830185610c78565b610fc56040830184610b09565b949350505050565b6000610fd882610aff565b9150610fe383610aff565b9250827fffffffffffffffffffffffffffffffffffffffffffffffffffffffffffffffff0382111561101857611017610eb2565b5b82820190509291505056fea2646970667358221220062837d71cec599a8cddc3e8397f84f7ca684831fc1e85f9a78d0fe2de9e4e8464736f6c634300080b0033",
  "immutableReferences": {},
  "source": "// SPDX-License-Identifier: MIT\r\npragma solidity ^0.8.0;\r\n\r\nimport \"./DappToken.sol\";\r\nimport \"./DaiToken.sol\";\r\n\r\ncontract TokenFarm {\r\n    string public name = \"Dapp Token Farm\";\r\n    DappToken public dappToken;\r\n    DaiToken public daiToken;\r\n    address owner;\r\n\r\n    address[] public stakers;\r\n    mapping(address => uint) public stakingBalance;\r\n    mapping(address => bool) public hasStaked;\r\n    mapping(address => bool) public isStaking;\r\n\r\n\r\n    constructor (DappToken _dappToken, DaiToken _daiToken) {\r\n        dappToken = _dappToken;\r\n        daiToken = _daiToken;\r\n        owner = msg.sender;\r\n    }\r\n\r\n    function stakeTokens(uint _amount) public {\r\n\r\n        require (_amount > 0, \"Tokens should be more than 0\");\r\n        daiToken.transferFrom(msg.sender, address(this), _amount);\r\n        stakingBalance[msg.sender] += _amount; \r\n\r\n        if(!hasStaked[msg.sender]) {\r\n            stakers.push(msg.sender);\r\n        } \r\n\r\n        hasStaked[msg.sender] = true;\r\n        isStaking[msg.sender] = true;\r\n    }\r\n\r\n    function unstake() public {\r\n        uint balance = stakingBalance[msg.sender];  \r\n        require(balance > 0, \"withdraw amount has to greater than zero\");\r\n        daiToken.transfer(msg.sender, balance);\r\n\r\n        stakingBalance[msg.sender] = 0;\r\n        isStaking[msg.sender] = false;\r\n    }\r\n\r\n    function issueTokens() public {\r\n        require(msg.sender== owner, \"caller must be owner\");\r\n        for(uint i = 0; i  < stakers.length; i++) {\r\n            address receipient = stakers[i];\r\n            uint balance = stakingBalance[receipient];  \r\n\r\n            if (balance > 0) {\r\n                dappToken.transfer(receipient, balance);\r\n            }\r\n\r\n        }\r\n    }\r\n}\r\n",
  "sourcePath": "C:\\Development\\koffeemakerz\\test-staking\\src\\contracts\\TokenFarm.sol",
  "compiler": {
    "name": "solc",
    "version": "0.8.11+commit.d7f03943.Emscripten.clang"
  },
  "schemaVersion": "3.4.3",
  "updatedAt": "2022-01-04T23:28:15.178Z",
  "networkType": "ethereum",
  "devdoc": {
    "kind": "dev",
    "methods": {},
    "version": 1
  },
  "userdoc": {
    "kind": "user",
    "methods": {},
    "version": 1
  }
}